:10000000403500201943000077670100ED420000F1
:10001000ED420000ED420000ED4200000000000053
:10002000000000000000000000000000F53F00009C
:10003000ED42000000000000A13F0000ED42000082
:10004000A540000005FC0000A5400000A540000000
:10005000A5400000A5400000A5400000A54000000C
:10006000A5400000A5400000A5400000A5400000FC
:10007000A5400000A5400000A5400000A5400000EC
:10008000A5400000A5400000A5400000A5400000DC
:10009000A5400000A5400000A5400000A5400000CC
:1000A000A5400000A5400000A5400000A5400000BC
:1000B000A5400000A5400000A5400000A5400000AC
:1000C000A5400000A5400000A5400000A54000009C
:1000D000A5400000A5400000A5400000A54000008C
:1000E000A5400000A5400000A5400000A54000007C
:1000F000A5400000A5400000A5400000A54000006C
:1001000053B94AB9002908BF00281CBF4FF0FF317E
:100110004FF0FF3000F00CB8ADF1080C6DE904CEE3
:1001200000F008F8DDF804E0DDE9022304B07047D0
:10013000704700BF2DE9F04F07468C460846099EE0
:1001400015463C461946002B40F0C6808242B2FA62
:1001500082F746D94FB1C7F1200E24FA0EFE00FAFD
:1001600007F3BD404EEA030CBC404FEA15481FFAA6
:1001700085FEBCFBF8F9220C08FB19C309FB0EFA3B
:1001800042EA03439A4528D9EB1809F1FF3004D21B
:100190009A4502D9A9F102002B44A3EB0A03A4B2A9
:1001A000B3FBF8F208FB123302FB0EFE44EA0344F1
:1001B000A64514D92C1902F1FF3303D2A64501D963
:1001C000931E2C44A4EB0E0443EA00401EB1FC40F5
:1001D000002334607360BDE8F08F4846DDE71346C6
:1001E000F0E702B9FFDE87BB831A01214FEA154E03
:1001F000AAB2B3FBFEFC200C0EFB1C330CFB02F876
:1002000040EA0343984563D9EB180CF1FF3004D260
:10021000984502D9ACF102002B44A3EB0803A4B229
:10022000B3FBFEFC0EFB1C330CFB02F244EA03445E
:10023000A2424FD92C190CF1FF3304D2A24202D9A9
:10024000ACF102032C44A41ABEE7C7F1200C20FA3B
:100250000CF800FA07F324FA0CFCBD404CEA030248
:100260004FEA154EABB2B8FBFEFC110C0EFB1C8026
:100270000CFB03F941EA0040814504FA07F423D955
:1002800028180CF1FF3104D2814502D9ACF10201EA
:100290002844A0EB090092B2B0FBFEFC0EFB1C0050
:1002A0000CFB03F842EA004398450FD9EB180CF118
:1002B000FF3204D2984502D9ACF102022B44A3EBE1
:1002C000080342EA014191E76146E2E76246F6E748
:1002D0006046A2E76346B6E7834205D90EB1C6E998
:1002E00000700021084676E7B3FA83F181B98342B2
:1002F00001D3BA420AD8BC1A60EB030301209C4622
:10030000002E68D0C6E9004C002164E70846F7E7F4
:10031000C1F1200C8B4022FA0CF41C4302FA01F5C7
:1003200000FA01F327FA0CF220FA0CFB4FEA144909
:100330001343BBFBF9F81FFA84FE09FB18BB1A0C28
:1003400008FB0EFA42EA0B42924507FA01F73ED942
:10035000A21808F1FF3004D2924502D9A8F1020098
:100360002244A2EB0A029BB2B2FBF9F809FB182265
:1003700008FB0EFE43EA024296452AD9A21808F16C
:10038000FF3304D2964502D9A8F10203224443EA7E
:100390000040A0FB0593A2EB0E029A42CE4698467F
:1003A00002D306D14F4504D2B9EB050E63EB040826
:1003B000013886B1B7EB0E0362EB080707FA0CFCB5
:1003C000CB404CEA0303CF40C6E900379CE74046E8
:1003D000C7E74346DBE73146FDE6000000000000CA
:1003E00038B5194C9DF810E094F840C01CF0010598
:1003F00022D163F3420C400194F8323061874FEA16
:10040000CE0E0EF0180E00F0200040EA0E0023F091
:10041000380303430D4884F83230A2FB00019123D6
:1004200003FB021106A3D3E9002384F840C0FFF7C1
:1004300067FEE063284638BD0C25284638BD00BF5E
:100440008D49FD1A07000000681B0020002AE78480
:1004500010B59DF808C0044649014FEACC0000F0F1
:10046000180001F0200CA17DE2834CEA000C0C483E
:1004700021F038014CEA010C9122A3FB000102FBA0
:10048000031184F816C004A3D3E90023FFF738FE54
:10049000206210BDAFF300808D49FD1A07000000F7
:1004A000002AE784000000002DE9F043044600F133
:1004B000340190F8400094F83230C0F3400060F30B
:1004C00086138DB084F8323009F068F994F8322040
:1004D000638F4548E46102F079020025A3FB000127
:1004E00084F83220912202FB0311C4E905553CA394
:1004F000D3E900232570FFF703FE3123C4E901533C
:10050000E36BE5600933A0F13102934232BF23610E
:100510002261E563064609F007F9236A07460DF1F3
:100520002C08002B44D00223304D0B93304BCDF8D8
:1005300020800694651BA3FB05352B48638F4FF085
:100540000009A3FB00019122CDF80C9002FB0311DE
:1005500023690493274B0793274B059320A3D3E9E3
:100560000023FFF7CDFD104619464FF47A720023A1
:10057000FFF7C6FDAD090235EDB2CDE901600321FB
:100580003B462A46CDF80090484608F0A3FF414676
:100590000BF0BCF940B994F8403043F0010384F803
:1005A00040300DB0BDE8F0830C200DB0BDE8F08305
:1005B000CDE90A33216943460AAA032002F01CF957
:1005C0000028B0D10B990D4805A3D3E90023A1FB66
:1005D0000001FFF795FD0A9F20F07F400744A2E746
:1005E0008D49FD1A07000000002AE784681B0020DF
:1005F000F1F0F0F009B000002DC1000000CA9A3BF4
:100600002DE9F04390F8BCE090F8BBC0E6458BB014
:1006100004460E4615462ED0ACEB0E0C0CF0030C27
:10062000BCF1020F0CD094F8183194F819219B1AE0
:10063000DBB2012B00F07F8100200BB0BDE8F0831E
:1006400094F8852194F884319A4206D094F8863142
:1006500003F00603042B00F0B18394F8BD707B1EF9
:10066000052B00F25A83DFE813F01F002E03A402CB
:1006700058036902CF0190F83E3113F00108D2D13E
:1006800090F8E51090F8E4208A4200F054830123AA
:1006900090F8842180F8BD3090F88531AEF1020CDD
:1006A0009A4280F8BCC0D1D1E38D678E1F4494F884
:1006B000E630BFB2EA1913F0070192B240F0C483EA
:1006C000B4F8C050521B10041FFA82F9ABD494F84E
:1006D0005C2194F85D3194F8BB0084F8BC0093422F
:1006E00094F8E40084F8E50009D094F85E3103F052
:1006F0000F03062B04BF84F85D21A4F8AC10B64BA1
:10070000D4F8E0801A68944204BF00221A60B8F15D
:10071000000F00F02A87D8F80000002800F0258795
:10072000B4F8E830B4F82AC04268C4F8E020634561
:10073000B4F8EA20B4F8EC1004D1B4F82CC0944515
:1007400001F04480B4F828C0A8F81E30192388F8B6
:1007500004300023A8F806C0A8F82020A8F822102A
:1007600088F81C3041460BF057F80BF05FF8A3688F
:10077000002B09DAE068626823F0004390422CBF46
:100780003118B118A360CE1A638DB4F8E88013FB5A
:1007900009F39BB2B3FBF8F118FB01F292B293425A
:1007A0001FFA81F980F0CF86D31A8C4940F2E242D9
:1007B00002FB03F3A3FB010185A3D3E90023FFF7A9
:1007C0009FFC20F07F431E44E38D1D4494F9393093
:1007D000EF1B4F4440F2E245002BE78505FB08F58F
:1007E000C0F2A587D4F8F0107C4879A3D3E90023A0
:1007F000A1FB0001FFF784FC20F07F470137784917
:10080000B4F8EC20B4F8EA00764BA4F82A80294426
:10081000B1FBF5F1A4F8AA1042F2107101FB0252EB
:100820002B44013A811DB2FBF5F2B3FBF5F3A4F8BA
:10083000A6209AB28A42A085A4F8B22004DDC0F5B1
:100840007F40FA30024492B294F8E630A4F8AE2029
:100850001A0744BF0023A4F8A8300221012011F098
:10086000D3FC002202218146012007F029FC5E49C9
:100870004FF4DC72204607F0B3FB00F103085FFA87
:1008800088F85A4B009442460121002008F0ACFE43
:1008900030F002030CD0564A5649574840F656539A
:1008A00015F027FD404080F311884FF0030002DF70
:1008B0000894069423690493484C504B0793504B7B
:1008C0000593A5FB04544FF6FE730393284640A3FB
:1008D000D3E900232146FFF713FC104619464FF4D5
:1008E0007A720023FFF70CFC39A3D3E900230290AE
:1008F00021462846FFF704FC3346CDE90070424606
:100900000121002008F0E6FD30F002030CD0384A47
:10091000384939484FF4576315F0EBFC404080F3F9
:1009200011884FF0030002DFB9F1000F40F0E086BC
:100930006FF08B0081E6334807F01CFB002838D0AD
:1009400094F81931013B84F819310379022242717C
:1009500043F003030371C271D4F89C3194F81A2157
:10096000D4F8A0110272B3B194F83E21950712D4C5
:1009700094F89721D2070ED4D4F8A821934200F01E
:10098000EC8659B91A7902F00302032A01F0A68015
:10099000C4F8A03104E0002900F08384D4F8A43125
:1009A0001A68026018600368C4F8A401002B00F004
:1009B0000982B4F8AC0000287FF43EAEB4F8A6304B
:1009C000012B40F26984A4F8AC3035E6AFF3008027
:1009D0008D49FD1A07000000C01B002000CA9A3B89
:1009E000FF5962027FC3C901580C0020BDC7000037
:1009F00024A9010040AA010080A5010065C70000EC
:100A0000B5F20000781C0020628EE38D94F8C010CF
:100A10001A442A44CE0795B28C4600F17B82B4F882
:100A2000C220AD1A2E043FF5FEAD94F8463094F87E
:100A3000478094F8BB20B4F8447084F8BC2011F0CF
:100A40001C0F03F0070908F0070840F09F85B4F871
:100A5000426011F0E00F0DD011F0600F18BF94F854
:100A60004720C1F341131CBF63F3020284F84720FF
:100A70004FF4A477D4F8E050002D00F09485286856
:100A8000002800F0908594F8463094F8472041689B
:100A9000C4F8E0101CF0020FC3F30201C2F3020E0F
:100AA00003F0070302F0070202D1994500F07186B6
:100AB000238DEB801D232B710023697785F81EE0C1
:100AC0002B7729460AF0A8FED4F8E050002D00F05C
:100AD000FB852868002800F0F785B4F842304268AA
:100AE000C4F8E020B3420AD3B3F5A47F07D8B4F822
:100AF0004430BB4203D3B3F5A47F41F20180A4F894
:100B00004260A4F844702B7F228DEA804FF0030CE2
:100B100043F00303092185F804C069772B77B4F803
:100B200040302B84E38FAB8415232946EB776F8409
:100B3000EE840AF071FE0AF079FE74E5CB4807F006
:100B400019FA00283FF46FAD94F8BB3084F8BC303C
:100B5000012302794371D4F89C3142F0030212213F
:100B60000271C171D4F8A021002B00F0A38394F886
:100B70003E11890700F19E8394F89711CF0700F189
:100B80009983D4F8A8118B4200F06D87002A00F0F9
:100B9000E687D4F8A4311A68026018600368C4F8C4
:100BA000A401002B00F0A085B4F8AA30A4F8AC3062
:100BB00039E594F8CC3013F003057FF434ADAB483D
:100BC00007F0D8F9064600283FF42DAD94F93930E6
:100BD000002B80F2FD8294F85E30190700F1138635
:100BE00094F8CD50002D40F0CB8604F15F073B46D2
:100BF0002A4604F1CE0104F2491010F0B1FE102291
:100C0000394604F1800015F0F4FD082204F1780162
:100C100004F1990015F0EDFD94F8773094F89820E0
:100C200084F86F5043F0010384F8773094F85E3015
:100C300084F8705065F30002012143F0080384F842
:100C4000982084F85E30C4E9245584F8715084F803
:100C5000725084F8735084F8745084F8755084F896
:100C6000765032797171D4F89C3142F0030205213B
:100C70003271F171002B00F0268394F83E21920727
:100C800000F1218394F89721D70700F11C83D4F851
:100C9000A811D4F8A0218B4200F0F182002A00F0C4
:100CA0007687D4F8A4311A6832601E603368C4F8BD
:100CB000A461002B00F04D8594F8CC3043F0030381
:100CC00084F8CC30AFE4628EE18D94F8C0300A44F1
:100CD0002A44DB0795B200F1D180B4F8C620AD1AE2
:100CE00028043FF5A0AC94F8BB3084F8BC3004F184
:100CF0003405052204F1C101284615F07AFD0521CD
:100D0000284607F00DFB94F83930012260F3050303
:100D100084F8393084F8B02185E4554A554956485D
:100D200040F2EC4315F0E5FA404080F311884FF0B3
:100D3000030002DF77E490F8F92090F8F870BA42E7
:100D400043D190F8112190F81071BA4200F0C68298
:100D5000D21BD0077FF567AC94F81231D90740F168
:100D6000C585980740F1B2850AF086FD014600B3BB
:100D700094F8103184F81131238DC380032303715B
:100D8000037F43F003030377062343770C23C377E2
:100D900094F8133180F82030B4F81431A0F82130E1
:100DA000B4F81631A0F8233008680AF035FD0AF0CF
:100DB0003DFD94F8BBC094F8BCE02DE420460BF058
:100DC000EBFD4AE4C4F8AC01F3E5D21BD1077FF593
:100DD0002AAC90F8BA1011F0010700F00D840AF067
:100DE0004BFD07460028E4D094F8F83084F8F93039
:100DF000037F228DC28043F00303037709234377E7
:100E0000C3770323037141460822203015F0FCFC10
:100E1000D4E94223110C87F82020C2F3072287F877
:100E200021201A0C87F8243087F82210C3F30723F7
:100E3000090A87F82620120A87F8231087F8253038
:100E400087F827203946AFE74B1E042B01F2298192
:100E500001A151F823F000BFBD100000DD0F00001C
:100E600027060000C310000033110000781C00208A
:100E700024A90100E0A5010080A50100CB4807F0EE
:100E800079F8064600283FF4CEABA28D94F8C01046
:100E9000037906326FF300012A4484F8C010A4F8E5
:100EA000C62043F003030821012203714171C2717E
:100EB00004F1C1010522083015F09BFCD4F89C31E7
:100EC000B4F8C620A6F80D20002B00F01A8494F880
:100ED0003E21970700F1158494F89721D50700F17A
:100EE0001084D4F8A811D4F8A0218B4200F04186D8
:100EF000002A00F03F87D4F8A4311A6832601E60DF
:100F00003368C4F8A461002B7FF48DABC4F8AC61E6
:100F1000FFF789BBD4E91201002207F099F80646D1
:100F200000287FF480AB02200AF086FC804600286F
:100F30003FF479AB9D4807F01DF8074600283FF4C1
:100F400072AB94F8C03066F30003C3F3421646EA6E
:100F5000930616F0070684F8C030DBB240F09C859B
:100F600094F8BB20A4F8C2609D0784F8BC2000F16F
:100F7000D085334632467B7205233E727B717A817F
:100F80001822D4F89C31D4F8A011FA713A7942F0C1
:100F900003023A71002B00F02D8594F83E21900752
:100FA00000F1288594F89721D20700F12385D4F821
:100FB000A821934200F04786002900F00387D4F867
:100FC000A4311A683A601F60C4F8A4713B68002B12
:100FD0007FF429ABC4F8AC71FFF725BBDFF8D081F3
:100FE00001200AF029FC074600283FF41CAB6F489B
:100FF00006F0C0FF054600283FF415AB6D4B1A689C
:10100000002A00F060840AF037FC3B68D4F8E02046
:101010005A602B79C4F8E07043F003032B710C2362
:101020006B710023EB7194F8F4302B72624AD4F8A0
:10103000F030A2FB03239B0AA5F80930B4F8E8308E
:10104000A5F80B30B4F8EA30A5F80D30B4F8EC3060
:10105000A5F80F3094F8E630C4F8C860032262F3B4
:10106000020384F8E630A368002B0ADAE0686268BD
:1010700023F0004390422CBF3118B118CB1AC4F8AA
:10108000C8304E4B01220935C4F8C4500221104625
:10109000C3E9024807F046F800283FF4C4AA484ACA
:1010A0004849494840F6F43315F023F9404080F3AD
:1010B00011884FF0030002DFFFF7B5BADFF80C81AB
:1010C0008EE7A38D94F8E600D4F8C450D4F89C11B0
:1010D00006331A4493B26FF30200A4F8C030A5F1AE
:1010E00009022B81D4F8A03184F8E600002900F031
:1010F000D38394F83E01870700F1CE8394F89701DB
:10110000C60700F1C983D4F8A801814200F0C78561
:10111000002B00F04686D4F8A431196845F8091C64
:101120001A6055F8091CC4F8A42100297FF47BAA91
:1011300038E094F8BB1084F8BC1094F8E4101D4A11
:10114000D4F8C45084F8E510D4F89C3194F85C11BC
:1011500084F85D1100211160D4F8A011A5F10902F5
:10116000002B00F0A68394F83E01860700F1A183CE
:1011700094F89701C00700F19C83D4F8A80183423A
:1011800000F06E85002900F00286D4F8A4311968B9
:1011900045F8091C1A6055F8093CC4F8A421002B35
:1011A0007FF441AAC4F8AC21FFF73DBA781C0020B7
:1011B00051280000C01B00205917B7D1600500203E
:1011C00024A9010068A8010080A50100F1F9000030
:1011D00004F15F073B462A4604F1CE0104F24910B0
:1011E00010F0BEFB1022394604F1800015F001FB1F
:1011F000082204F1780104F1990015F0FAFA94F844
:10120000771094F8982094F85E3084F86F50C4E911
:10121000245523F0180365F3000142F0010284F81D
:10122000705084F8715084F8725084F8735084F8C8
:10123000745084F8755084F8765043F0180384F89D
:10124000771084F89820012184F85E30327971712A
:10125000D4F89C3142F0030206213271F17193B34C
:1012600094F83E2195072ED494F89721D0072AD4DC
:10127000D4F8A8219342D4F8A0217FF40FAD1968C7
:10128000C4F8A811002A7FF40CAD1A6832601E6001
:101290003368C4E968660CE50133A4F8AC30FFF7A5
:1012A000CCB90360C4E96700C4F8A401002B7FF443
:1012B00080AB87E5002A7FF46CAC0360C4E967006B
:1012C000C4F8A4016DE4D4F8A021002A7FF4E9ACAD
:1012D0003360C4E96766C4F8A461EAE490F85D711C
:1012E00090F85C21974200F01882BB4F3A68002AC0
:1012F00000F0998390427FF496A990F85E2102F065
:101300000F02082A00F2DE8601A050F822F000BF8A
:1013100079140000F1130000A11300001906000069
:101320001906000019060000190600001906000041
:1013300035130000E18D628ED4F878010A442A4406
:1013400094F85E51D4F89C1120F8022C042262F328
:10135000030584F85E51A0F11302D4F8A0510029CE
:1013600000F0C4839E0700F1C18394F89731DB0736
:1013700000F1BC83D4F8A831994200F06686002DB4
:1013800000F02A86D4F8A431196840F8131C1A60BA
:10139000C4F8A42150F8133C002B7FF444A901E7C2
:1013A0009F073FF540A90AF067FA014600283FF47D
:1013B00000AD94F85E010B7F032243F0030362F358
:1013C0000300182784F85E01208D0A710B774F7790
:1013D000B4F860310B84B4F862314B84B4F86431F2
:1013E0008B84B4F86631CB840F23C880CB77DBE4E1
:1013F00094F85F31002B40F0E78394F93920002AFC
:10140000C0F2FC8494F85E21C4F8F030062060F34A
:10141000030294F8680184F85E210125B4F8622182
:1014200084F8F450002800F0AE84B2FBF0F313FB14
:1014300000F3B4F860019BB2984298BF1A46A4F832
:10144000E82094F85E3194F8E620B4F86401A4F83A
:10145000EA00C3F30013DB0022F00F0243F00203A3
:1014600013430139B4F86621A4F8EC2084F8E6307F
:1014700084F8E510FFF7D7B8584806F07BFD024620
:1014800000283FF496AC03793C6043F003030371FA
:10149000182343710F23C371B4F860310381B4F88A
:1014A00062314381B4F864318381B4F86631C38119
:1014B00000230374C37403754FF0FF3343758375C2
:1014C000C375037643768376C37603774377837752
:1014D000B4F8AA30A4F8AC3094F85E31C4F87C615A
:1014E000072161F3030384F85E31A368002B0ADA55
:1014F000E768606823F0004387422CBFF119311878
:10150000CB1AC4F87C311332354BC4F87821012250
:10151000022110469C6006F005FE00283FF449AC0D
:10152000304A314940F68173304814F0E2FE4040C1
:1015300080F311884FF0030002DF94F8BBC094F8E9
:10154000BCE0FFF769B808FB113340F2E2422849DA
:101550009BB202FB03F3A3FB01011DA3D3E900230C
:10156000FEF7CEFD361AFFF72FB91E4A21491F4854
:1015700040F6A14314F0BDFE404080F311884FF0C7
:10158000030002DFD8F80000FFF7CAB811F00C0F13
:10159000C1F381021CBF62F3020384F846304FF4AA
:1015A000A476FFF756BA0F4A1249104841F2B52304
:1015B00014F09FFE404080F311884FF0030002DFDB
:1015C000286894F8C0C0FFF75EBA00BFAFF3008090
:1015D0008D49FD1A07000000C01B0020781C002068
:1015E0007005002024A9010068A8010080A5010061
:1015F00000CA9A3B04AA0100B74806F0BBFC80462B
:1016000000283FF4D6AB94F8F930013B84F8F93068
:101610000923437194F93930002B037943F0030314
:1016200003714FF00802ACBF08230E23C371394683
:10163000104415F0E9F8D4E94023110C88F808208B
:10164000C2F3072288F809201A0C88F80C3088F8B1
:101650000A10C3F3072388F80E20090A120A88F833
:101660000B1088F80D3088F80F20D4F89C31002B2F
:1016700000F0848094F83E2192077FD494F897215B
:10168000D7077BD4D4F8A811D4F8A0218B4200F05E
:101690008882002A00F04584D4F8A4311A68C8F87A
:1016A0000020C3F80080D8F80030C4F8A481002BD3
:1016B00000F0D681B4F8AA3094F8BBC094F8BCE02E
:1016C000A4F8AC30FEF7A8BF844A8549854841F2AA
:1016D000E92314F00EFE404080F311884FF0030020
:1016E00002DF2868FFF7F9B9C4F8AC01FFF75CBA6C
:1016F00001221046022106F0E3FC6FF08B00FEF79A
:101700009CBFD4F8A021002A7FF4F5AB3360C4E974
:101710006766C4F8A461FFF7F6BB90F8852190F8DE
:1017200084319A4272D00BF037F9FFF742BB6B4A13
:101730006D496C4840F6275314F0DBFD404080F3C0
:1017400011884FF0030002DF0027B4F8E880FFF7AC
:1017500056B8C4F8AC61FFF7AFBA1A68C4F8A8214C
:1017600000297FF41BA91A68026018600368C4E9A5
:101770006800002B7FF41DA9FFF724BBD4F8A0213B
:10178000002A89D1C8F80030C4E96788C4F8A48168
:101790008DE790457FF48CA901232B7129460AF02F
:1017A0003BF8D4F8E050002D00F06A822868002849
:1017B00000F066824268C4F8E02001232B712946BC
:1017C0000AF02AF80AF032F8FEF72DBF40F2E24C98
:1017D0000CFB03FE42F2107C0CFB01EC0CF1FF3C15
:1017E000BCFBFEFCB4F8A6E01FFA8CFCE6457EF4D8
:1017F000A9AF012388F8043041460AF00DF80AF039
:1018000015F8FEF7B4BF43F010031CE590F89431CF
:1018100090F895219A423EF406AF90F8962102F096
:101820000301032900F04E8200297EF4FCAE2A4811
:1018300006F0A0FB014600283FF4BBAA94F89631BD
:1018400094F89701012262F3010394F8982184F837
:101850009631C3F3820767F3020294F84670C0F32F
:10186000400060F3C30784F84670C3F34217087959
:1018700067F3C50284F89821C3F38202032340F082
:1018800003004B71162308710A724F720022CB714C
:1018900020460AF08BFD0DE7002B7FF43CAC45F8A9
:1018A000091CC4E96722C4F8A42100297EF4BBAE58
:1018B00078E400297FF469AC45F8093CC4E9672263
:1018C000C4F8A4216BE41C60FFF79DBB034A0649E2
:1018D00040F62C7328E600BF781C002024A90100E4
:1018E00004AA010080A50100E0A50100B54806F0AA
:1018F00041FB00283FF45DAA94F81131013B84F8C4
:10190000113194F8123143F0010384F81231037954
:1019100043F003030371062343710C23C371037265
:101920006FF00E034372052383724FF0FF33C372CF
:101930000373D4F89C31002B00F0A38094F83E216F
:10194000920700F19E8094F89721D70700F19980C3
:10195000D4F8A8219342D4F8A02100F0EC82002A08
:1019600000F06083D4F8A4311A6802601860C4F8EB
:10197000A4010368002B7FF49DAEC4F8AC0199E686
:10198000037943F00303037194F8BA30DA0745D5BD
:10199000D4F800315B0741D51123C37103230372CF
:1019A00045727771D4F89C31002284F8CD205BB366
:1019B00094F83E21900727D494F89721D10723D497
:1019C000D4F8A8219342D4F8A02100F0BF81002AC6
:1019D00000F07882D4F8A4311A6832601E60C4F82E
:1019E000A4613368002B76D094F8BB3084F8BC3007
:1019F000FEF719BE00297FF4E2AA3B60C4E96777CD
:101A0000C4F8A471FFF7E2BAD4F8A021002AE1D10A
:101A10003360C4E96766C4F8A461E2E70D23F3719B
:101A200035720227BDE790F85E2102F00F02082A06
:101A300000F2488301A050F822F000BF79140000A2
:101A4000F1130000A1130000270600002706000084
:101A500027060000270600002706000035130000B7
:101A6000C4F8AC8126E61968C4F8A811002A7FF4EE
:101A700090A81A68026018600368C4E96800FFF75C
:101A800090B8D4F8A021002A7FF46CAF0360C4E9B9
:101A90006700C4F8A4016CE7A28D06322A44A4F8BA
:101AA000C22009F0E9FED8F80030D4F8E0205A60EE
:101AB000C4F8E08009F0E0FE0368D4F8E010596053
:101AC00094F8C030B4F8C220C4F8E000C3F3820632
:101AD0005B09FFF750BAC4F8AC6185E7DA79032AED
:101AE0003FF441AE0A2A7EF453AF3CE6002D7FF46A
:101AF00049AC40F8131CC4E96722C4F8A42149E4A6
:101B0000012329462B7109F087FE09F08FFEFEF7AD
:101B10008ABD09F0B1FE238DA8F806301D2388F890
:101B20001C6088F8043094F84630D8F80000C3F3FD
:101B3000020388F81D3094F84730C3F3020388F895
:101B40001E30414609F068FE09F070FE94F8C0307E
:101B5000B4F8C220C3F382065B09FFF70CBA1A7906
:101B600002F00302032A00F0FD80C4E96833FFF7A6
:101B700010B81968C4F8A811002A7FF4BCA91A6823
:101B800032601E603368C4E96866FFF7BCB91A7931
:101B900002F00302032A00F02881C4E96833FFF74A
:101BA00080B81968C4F8A811002A7FF475AD1A68C6
:101BB000C8F80020C3F80080D8F80030C4E968886D
:101BC00075E500BF781C0020C74806F0D3F900284F
:101BD0003FF4EFA8027942F0030202711122C271B0
:101BE000032242710F22027294F85F214272D4F8EC
:101BF0009C21002A00F08A8194F83E11890700F1A7
:101C0000858194F89711CB0700F18081D4F8A81151
:101C10008A42D4F8A01100F0AF81002900F02B8295
:101C2000D4F8A421116801601060C4F8A40102680E
:101C3000002A00F0FF8194F85C3184F85D310023C4
:101C40003B60FFF7B6B81A68C4F8A82100297FF4F2
:101C5000B6A91A683A601F60C4E96877FFF7B6B999
:101C60001868C4F8A80100297FF48FAA196845F8FC
:101C7000091C1A6055F8093CC4E96822FFF78FBABD
:101C80009A4A9B499B4841F2C72314F032FB4040DB
:101C900080F311884FF0030002DF28688AE50868A6
:101CA000C4F8A801002B7FF436AA0B6845F8093C5C
:101CB0000A6055F8091CC4E9682200297EF4B3AC17
:101CC000FFF770BA170780F89531C2F3820340F12D
:101CD000138190F89631022262F3840380F89631E2
:101CE00094F8963159064FEA531275D5022262F3E1
:101CF000471384F8963194F8962194F8467094F836
:101D0000470094F89731C2F3820107F0070700F00B
:101D10000700C3F380038F4208BF00215B00B0EBD4
:101D2000521F43F001034FEA521208BF002243EA58
:101D30004213AEF1020C43EA8103062284F8BCC0D0
:101D400084F8C03084F8BD20FEF787BC1968C4F859
:101D5000A811002A7FF43EAE1A6832601E60C4E902
:101D600068663EE6DA79032A3FF483AE0A2A7FF4F6
:101D7000FCAE7EE61A7902F00302032A1BD0C4E906
:101D80006833FFF7B8B8A4F8E820FFF75ABB197911
:101D900001F00301032900F03D81C4E96833FFF736
:101DA000F4B90B7903F00303032B00F01E81C4E99F
:101DB0006811FFF7B0B9DA79032A3FF4E0AE0A2AD6
:101DC000DDD1DCE61A7902F00302032A00F0358146
:101DD000C4E96833FFF7F3B8D70740F1C4800122A4
:101DE00062F3471384F8963185E7DA79032A3FF4E2
:101DF0004CAA0A2A7FF4D1AEFFF747BA3A4806F058
:101E0000B9F800283EF4D5AF027942F0030202711E
:101E1000182242711022C271B4F860210281B4F814
:101E200062214281B4F864218281B4F86621C281C2
:101E300094F868210274B4F86A21A0F81120B4F86B
:101E40006C21A0F81320B4F86E21A0F81520B4F886
:101E50007021A0F81720B4F87221A0F81920B4F866
:101E60007421A0F81B20B4F87621A0F81D20D4F826
:101E70009C217AB394F83E1189072BD494F89711DA
:101E8000CB0727D4D4F8A8118A42D4F8A01100F0C7
:101E90008A8000297FD0D4F8A421116801601060E5
:101EA000C4F8A4010268002A72D094F85E3194F854
:101EB000BBC094F8BCE0052262F3030384F85E31F2
:101EC000FEF7AABB1A7902F00302032A77D0C4E90D
:101ED00068337FE5D4F8A0110029DCD10260C4E9A1
:101EE0006700C4F8A401DDE7781C002024A90100E4
:101EF00004AA010080A50100D80728D594F89631DE
:101F0000012262F3840384F89631E9E6D4F8A01143
:101F100000297FF485AE0260C4E96700C4F8A4011B
:101F200085E61A7902F00302032A00F09580C4E9DD
:101F30006833FFF7B1BB1968C4F8A811002A7FF411
:101F400011AD1A6802601860C4E9680011E513F069
:101F5000040300F0898094F89631042262F384032C
:101F600084F89631BCE612F0040218BF042262F332
:101F7000471384F89631BEE61368C4F8A8310029E7
:101F80007FF44EAE116801601060C4E968004EE64F
:101F9000C4F8AC0189E7117901F00301032915D0D8
:101FA000C4E9682277E71368C4F8A83100297FF4F0
:101FB00072AF116801601060C4E9680072E7DA79F5
:101FC000032A3FF4C9AE0A2A81D1C5E6D179032993
:101FD000EFD00A29E4D1ECE70B7903F00303032BDC
:101FE0000BD0C4E96811FFF7CDB9CB79032B3FF4CF
:101FF0005CAE0A2B7FF4DBAE57E6CB79032B01D026
:102000000A2BEED10B6840F8133C0A60C4E9682241
:10201000FFF7C0B9D97903293FF428AE0A297FF424
:10202000BCAE23E61A7902F00302032A2BD0C4E9DE
:10203000683397E4C4F8AC01FDE5DA79032A3FF48C
:1020400008AE0A2A7FF4C4AE03E60B68C4F8A831D0
:10205000002DD7D0FFF796B9DA79032A3FF4A7AD60
:102060000A2A7FF464AFA2E594F8962163F3840210
:1020700084F8962134E6117901F00301032909D08F
:10208000C4E96822CCE5DA79032A3FF45AAF0A2A78
:10209000CDD156E7D17903293FF474AF0A29EFD1A6
:1020A00070E70B4A0B490C4840F6484314F021F9FD
:1020B000404080F311884FF0030002DF4FF000082A
:1020C000FEF78EBF024A034941F26C03FFF72CBAB8
:1020D00024A90100E0A5010080A501000000000086
:1020E0002DE9F04F8BB0CDE90423BDF858300693AD
:1020F0000646BDF860309DF85490BDF85CB003937F
:1021000000200F460AF0EEF8002800F0748109F074
:1021100001040546204607F031FB002C4BD12B6A09
:1021200005F11C0A002B4DD0D5F82080D8F80040CE
:1021300098F82A00C0F3C00100F007000EF04AF939
:10214000B8F8261000F5E1700144B8F82800014401
:10215000CD48CBA3D3E90023A1FB0001FDF7D0FFBD
:1021600020F07F40206195F84030059A69F34203E2
:1021700085F8403095F8333062F3000385F833304A
:102180001499062205F1240014F033FB039B0499F3
:102190002B8632463B46504600910021FEF758F907
:1021A0000EF0C0FA002840F02A812846FEF77CF99C
:1021B0000BB0BDE8F08F062105F026FF0028AED158
:1021C0001220F5E709F01CFB0790002800F04F8172
:1021D0000AF0D8FC0446002800F08A81203006F07E
:1021E000B3F804F11C08002840F03481032104F105
:1021F00024000DF0B1FF069BA06D63854FF6FF73C1
:10220000A4F82CB02385002800F0338104F14801A4
:1022100004F14C0205F004FF636C9C4A1A4094F8E8
:102220005E3023F0070384F85E30994B13436364F8
:10223000984B23644FF0000B1B23E387C4F858B07E
:10224000A4F85CB0A4F82EB0C4F830B004F13400A7
:102250000DF022FC94F8393060F30503012184F875
:1022600039300DF127000DF077FF9DF827208A4BBC
:10227000DDF80CC0A08D84F83BB0A3FB0213DB0893
:1022800003EB4303A2EB8303053384F83A3094F85D
:1022900039300699A4F8A8B003F03F0384F8393028
:1022A00094F83C30A4F8ACB023F0030340F2E242CF
:1022B00084F83C30794BA4F8B4B002FB01F10A4633
:1022C0000B44B3FBF1F37649A4F8B0B01144B1FB71
:1022D000F2F1A4F8AA1042F2107101FB0C210139AD
:1022E000B1FBF2F2A4F8A6200622A4F8A420811DD6
:1022F0009AB28A42A4F8B22002DD063A121A92B2C9
:10230000B4F8BA30A4F8AE204FF0000B03F0F80395
:10231000A4F8BA30A4F8BCB0C4F8E0B0A4F8E4B0B3
:10232000A4F8F8B008F020FE079BC4F81C3194F81C
:102330001231A4F810B123F0030384F8123194F899
:102340005E30A4F818B123F0180384F85E3094F8D6
:102350003E3184F81BB123F0070384F83E3194F832
:102360005E31A4F83CB16BF3451384F85E3194F808
:102370008631A4F85CB16BF3C303002284F8863184
:102380000023C4E94001C4E94223A4F884B1A4F8BD
:1023900090B10AF0FBFEA4F8B6000AF0FDFED4F8F6
:1023A0009421404BA4F8B8001340C4F894310AF0CB
:1023B000F9FE94F8983160F3020384F898310AF03A
:1023C000F7FE94F89831C4F89CB160F3C50384F823
:1023D00098313123C4E96ABBC4E968BBC4F804B0CE
:1023E000C4F80CB0A360C5F82080C4E905BB84F82C
:1023F00000B0E4619CE60C200BB0BDE8F08F2C6AC5
:10240000E36B63B1284A2949294840F2C74313F0D6
:1024100070FF404080F311884FF0030002DF04F1A9
:10242000300104F12C0005F0FFFD0646002851D0D4
:102430002768E663D7F81C41002C3DD0204609F000
:10244000E5F938460AF0A4FB002303202B620BB009
:10245000BDE8F08F144A17491548BF2313F049FF10
:10246000404080F311884FF0030002DFBEE60720F2
:102470009EE604F15000A065C8E600BFAFF30080FF
:102480008D49FD1A0700000000CA9A3B000080F841
:10249000480111011B004801ABAAAAAA7FC3C901C8
:1024A000FF5962020000FFF6F0AA010034AB010000
:1024B00080A5010064A70100104A114911484FF49A
:1024C0009A6313F016FF404080F311884FF0030029
:1024D00002DFB3E7094A0A490A4840F2C94313F048
:1024E00008FF404080F311884FF0030002DF9FE7B0
:1024F000079809F08BF907205AE600BFF0AA0100FF
:102500007CA9010080A501002DE9F04780468CB030
:10251000044618F81C6F8946154600F1240106226E
:102520000AA814F066F9277F18F0010FC6F3C01649
:10253000C7F3401740F0D08000230AA90622A677EF
:10254000A38304F11F0014F054F9D9F80030D3F834
:1025500000A0EB89E3842B8A2385BAF830306385A9
:102560000EF032F984F82C00D5F8008040460AF0CD
:1025700015FBD9F80460A8812146E080206809F0A5
:102580004BF9AB89F3801C2334683371002F40F082
:10259000B18037773146204609F03EF909F046F917
:1025A000D8F80430D8F8086095F82A00EF89D9F8EF
:1025B0000C409E4238BF1E46C0F3C00140F2E243C9
:1025C00000F0070003FB07F70DF004FF20340022A2
:1025D0000221241A012005F073FD504609F05AFE2D
:1025E000821C4D4BCDF800A0D2B20121002006F094
:1025F000FBFF30F002030CD0484A494949484FF4E8
:10260000767313F076FE404080F311884FF003009C
:1026100002DF4FF0000A012211465346CDF800A018
:10262000504606F0E1FF40460AF0B8FAD9F8083003
:10263000CDF81880093B9E1B3B4B07933B4B059302
:102640004FF48163DFF8E8900893D8F81030A7FBC7
:102650000987CDE903A3C51C2DA3D3E90023404678
:102660003946FDF74DFD104619464FF47A720023A6
:10267000FDF746FD26A3D3E90023029039464046E4
:10268000FDF73EFD22A3D3E900230190A4FB09013D
:10269000FDF736FDEDB220F07F40009033462A462C
:1026A0000121504606F016FF30F002030CD01B4A01
:1026B0001B491C4840F2094313F01BFE404080F3C5
:1026C00011884FF0030002DF01220221104605F0BD
:1026D000F7FC0CB0BDE8F087104A1649114840F2EB
:1026E000573313F006FE404080F311884FF003008B
:1026F00002DF21E76B7F43F040036B77281D0DF06D
:1027000017FA0123E883337744E700BFAFF3008073
:102710008D49FD1A0700000081F20000F0AA0100B7
:1027200040AA010080A5010085F20000B5F200007A
:1027300000CA9A3B94A601002DE9F04186B005AC91
:102740000094039216461D46044604AB03AA0220D9
:102750000DF0CCF8FF2830D0DDE90413244F0B44F2
:10276000A3FB07014FF0070808FB03111EA3D3E9E1
:102770000023FDF7C5FC803028600398831B1B02F3
:102780001ED4314606F0D2FF0346A0FB070108FB2A
:10279000031115A3D3E90023FDF7B2FC2A68024414
:1027A0002A60002A09DB40F2E24004FB00F090427C
:1027B00003D2121A8242FCD82A6006B0BDE8F0812A
:1027C0000146304606F0B2FF0346A0FB070108FBB6
:1027D000031105A3D3E90023FDF792FC2A68121A1E
:1027E0002A60DEE7AFF3008000CA9A3B00000000D9
:1027F0008D49FD1A0000000010B584B003AC9C4662
:10280000009402AB64460DF071F8FF2812D0DDE9A8
:1028100002210D480A44A2FB0001072303FB021119
:1028200007A3D3E90023FDF76BFC80302060002074
:1028300004B010BD6FF00900FAE700BFAFF30080ED
:1028400000CA9A3B000000008D49FD1A00000000FC
:102850002DE9F041B0F86C1188B0044640F2E24333
:102860004748002603FB01F105AD0623C5E90166D3
:102870008DF80F30A1FB00013FA3D3E9002305969B
:10288000FDF73EFC0DF10F0301950093B4F86231A2
:10289000049004AA204601210CF0DCFE9DF80F8074
:1028A00008F1FF3C5FFA8CFC0DF11603304604F58D
:1028B000B67703EB4C0C04F5BC764FF6FF7E3A88F6
:1028C000B8F1000F0AD02B46724504D01988914206
:1028D0004FF001001DD002339C45F5D10237BE42B6
:1028E000EDD1D4F8C43048BBBDF8142040F2E24129
:1028F00002FB01F1100AC4F8F0101A70587094F835
:10290000E630042262F3020384F8E63008B0BDE842
:10291000F081D4F8C41040F2E24302FB03F3100A42
:10292000C4F8F0300A70487094F8E630042262F37C
:10293000020384F8E63008B0BDE8F081032203F812
:10294000042C13F8052C94F8E610052542F0030238
:10295000112003F8020C03F8052C65F302010F2087
:10296000202203F8010C1A7084F8E61008B0BDE8C4
:10297000F08100BFAFF300808D49FD1A0700000011
:1029800000CA9A3B0000000038B504460EF036F845
:10299000A27DC2F34103013303F00303032B34D0C0
:1029A00063F34202A27503F125000DF0D1FC6368C8
:1029B0000BB32369FBB10FF023FB054606F0B4FE11
:1029C000C11C00200FF0EAFA0FF04CFB0FF018FBCF
:1029D000294606F0ABFE124903460722A0FB01017F
:1029E00002FB03110CA3D3E90023FDF789FB236944
:1029F0001B1A236138BD06F097FEC11C00200FF0A2
:102A0000CDFABDE838400FF02DBB6FF34202A2753E
:102A10002520CAE7AFF3008000CA9A3B00000000FF
:102A20008D49FD1A00000000F0B587B004460FF094
:102A3000E9F8C0B250B90DF0E1FCB14821460EF002
:102A4000C1FF07B0BDE8F0400FF0B2B80FF0FAF8E0
:102A500005460FF0F5F907460FF0FCF90FF0D4F931
:102A6000EDB206460FF0B6F90DF0C8FC002DE4D02B
:102A7000012009F019F80546002800F04781A37DE0
:102A8000C3F3C0011B0702D5FFB2002FD5D02B7FA7
:102A90006068F6B203F00F02002800F0B0806068B2
:102AA00090F82000800700F1AA80072AC5D00029ED
:102AB00000F03A81002A40F084806A7F252A00F2E3
:102AC000C280042008F0F0FF0028B6D00FF0D2FA40
:102AD000236A064643B9E38B40F2712202FB03F3FB
:102AE000B0FBF3F203FB12062268864B1269072142
:102AF000A2FB030301FB02317FA3D3E90023FDF70F
:102B0000FFFAA0F24233B34297D30FF055F9A67DF6
:102B100063680FF0A5F82B7F05A905F11E0203914C
:102B2000C6F3801604F118010746C3F38013009220
:102B3000029100220146019620460EF029F93846FE
:102B40000FF01CF80FF054F8002840F06F81214678
:102B50006D480EF037FF626892F8203043F00103B1
:102B600082F82030A37D43F08003A37508F0BCFFFA
:102B70001723064603714FF6FF73242239462D7F33
:102B8000C3801C3013F035FE337FB460C5F34015AD
:102B900065F3451333770FF033FA002130610120DC
:102BA000059C0EF0F9FF241A746108F09DFF03469E
:102BB00031463068F36008F0ADFF08F0BBFF07B0A6
:102BC000F0BD012A1DD16A7F0C2A7FF436AFA27DA9
:102BD000C2F38011B1EBD31F4FEAD31700F04B8142
:102BE000C2F3C102920707D537B195F8293003F037
:102BF000C003402B3FF465AF2B7F03F00F02002A88
:102C00006BD0062A69D0022A00F0A880012A1AD1C6
:102C10006A7F0C2A7FF411AFA27DC2F38011B1EB61
:102C2000D31F4FEAD31700F0F680C2F3C10290071A
:102C30007FF503AF37B195F8293003F0C003402B7F
:102C400000F017812B7F03F00F03042B7FF4F5AE08
:102C50006B7F252B3FF6F1AEA37DDF077FF5EDAE51
:102C60000EF0FEFF2B7F0278C3F38013B3EBD21F6D
:102C70007FF4E3AE0622083005F11E0113F0A8FD33
:102C800000287FF4DAAE6A7F0746002A3FF4D5AE0B
:102C900063682BB12B7F03F00F03072B7FF4CDAEBE
:102CA000032008F001FF054600283FF4C6AE08F0F7
:102CB0001BFF4FF6FF73EB8005232B71002E49D1CC
:102CC0007F206B7E287667F3000328686B762946A1
:102CD00008F020FF08F02EFFAFE66A7F252AB2D861
:102CE000A17D890602D56168002939D0252A98BFBF
:102CF0000027CAD9A7E700BF00CA9A3B000000001E
:102D0000950A01008D49FD1A650C0100604A614970
:102D1000614840F2CB2313F0ECFA404080F3118875
:102D20004FF0030002DFAAE6E17DC3F3801001F05B
:102D3000010188427FF463AF062205F11E0104F110
:102D4000080013F045FD2B7F03F00F0200283FF42D
:102D5000B1AE54E70FF04AF8C0B2B2E76A7FC5E7F8
:102D600096200FF08DF800200EF07EFF032008F073
:102D70009BFE074600283FF460AE08F0B5FE4FF614
:102D8000FF73FB8005233B71002E40D17F227B7EA9
:102D90003A766FF300037B763946386808F0BAFE5E
:102DA00008F0C8FE0EF05CFFA37D2A7FC3F38013FA
:102DB0009B01C2F3801243F0030343EAC21302787B
:102DC00002F0300213430C2203700646427004F1F5
:102DD00018010622023013F00CFD062205F11E0137
:102DE00006F1080013F005FD30460EF0C7FE0EF0A8
:102DF000FFFE80BB0FF036F9A37D284843F00103A6
:102E00002146A37507B0BDE8F0400EF0DBBD0EF023
:102E1000EDFFC2B2BBE7062205F1240104F1180060
:102E200013F0D6FC80B96A7F07462EE7184A1C4982
:102E3000194840F2A44313F05CFA404080F3118833
:102E40004FF0030002DF82E6A37DC3F3C1039B07BB
:102E50003FF5F0AEF6E60E4A11490F4840F229530D
:102E600013F047FA404080F311884FF0030002DF6F
:102E7000C0E76A7F09E7062205F1240104F1180082
:102E800013F0A6FC00283FF41CAEA27DA8E600BF0C
:102E900038AD010084AD010080A50100A90A010040
:102EA0008CAD010030B50B4D0FCD87B001AC0FC418
:102EB0002B680949236001A802F03CFE014620B1BD
:102EC000064812F000FF07B030BD054812F0FBFEC7
:102ED000F9E700BF60A10100992F000004B10100D3
:102EE00027B1010070B503788AB004460E4607ADDD
:102EF000032B20D8DFE803F002191B1D11492846D7
:102F000013F040FC63780493A3780393E37802936F
:102F100023790193637900930B4AA37905951E21C8
:102F2000304612F0DDFE0AB070BD0849E7E70849F7
:102F3000E5E70849E3E7084A0A21284612F0D0FEEF
:102F4000E0E700BF46B101006FB101004DB10100E3
:102F500054B101005EB1010068B1010030B50C4C04
:102F60002368834289B00D4610D114F0ABF869464E
:102F7000FFF7B8FF07482A46694612F0A4FE20680A
:102F800014F069F800232360FFF78CFF09B030BD0F
:102F9000D80F002092B10100F0B5184F3B688FB0F8
:102FA00005460C463BBB012A25D806A9FFF79AFF28
:102FB0002246134806A912F086FE46341BDB02F0B7
:102FC00039FEC0B90F4E06F114030FCB02AC84E8F2
:102FD0000F00706AB16A6B4603C36A463B462146DE
:102FE000284603F0B7F9024628B1074806A912F0AF
:102FF0006AFEFFF757FF0FB0F0BD00BFD80F0020EB
:10300000B4B1010060A10100D0B1010070B588B079
:103010000C46054614F056F86946FFF763FF0E4E5E
:103020006CB10E482246694612F04DFE306814F02D
:1030300012F800233360FFF735FF08B070BD346825
:10304000AC42FAD16946064812F03DFE13212046F3
:1030500014F03AF8F1E700BFD80F0020EFB10100FB
:103060000DB201002DE9FF411B491C4812F02BFE57
:1030700000F032FD002002F09BF9014628B118480B
:1030800004B0BDE8F04112F01EBE1648DFF85880CB
:10309000164F174E12F017FEFFF704FF404612F0CE
:1030A00012FE00F001FD04460146384612F00BFE08
:1030B0002046356813F070FB0022CDE90122009212
:1030C00083B2224640F2D241284615F01FFB01464A
:1030D000084812F0F8FDE1E71CB2010030B201002F
:1030E00041B2010061B2010078B201007AB2010080
:1030F000D80F00208AB201000B6801330B60014B2E
:103100001B68184760010020014B1860704700BF22
:10311000600100201FB5002402460B46009403A95D
:103120000248039400F0FAF804B010BDF930000032
:1031300030B587B00025CDE903010446009503A909
:103140000548059500F0EAF8DDE904309842B8BF7B
:10315000255407B030BD00BFA15C01002DE9F84F38
:10316000B0F8189019F00808044693460DD00129CC
:103170000CBF49F0100949F02009A0F818908BF312
:103180001188BFF36F8FBDE8F88F09F00709022996
:1031900007D1204612F0B1FD0028F0D00128238B82
:1031A0004ED16769218B002F15DA256821F00701C0
:1031B000C4E9008841F0010121830026218B01F040
:1031C000070ACA4502D0A368002B5AD10DB9002EB8
:1031D00071D0002356E001F007035A1F012A1ED8C0
:1031E00021F00701062B256889B2C4E900880AD1BD
:1031F0003DB1638B2A46126801339BB2002AFAD193
:10320000638341F002012183204612F076FD0646D9
:103210000028D3D0238B43F020032383CDE7042B56
:103220000CD121F0070189B22183204612F065FDFF
:1032300005460028C1D041F0200121830025BCE7CC
:10324000032809D1226923F00703166843F0060317
:10325000238300252F46B1E7042806D1226923F0F5
:103260000703566843F00403F2E7052806D12269F4
:1032700023F00703966843F00503E9E700252E468F
:10328000E8E7012341F0080121838BF31188BFF3A4
:103290006F8FFBB985BB16B11F492046B0474FF071
:1032A0002003EFF3118B83F31288BFF36F8F238B0F
:1032B00023F008032383238BDA0625D523F010039C
:1032C00023830121B4F8189009F0070900297FF43D
:1032D0005EAF54E7A1680029DCD0D1F80090D1F8A6
:1032E00004B03B4652462046D847B9F1000FD1D032
:1032F0004946D9F80090F2E729463B465246204617
:103300002D6812F016FDC5E713F020011EBF23F053
:10331000200323830221D5E75F5D01002DE9F04FF3
:1033200091B08B46029092461C4600259AF8000008
:1033300008B9284663E325280AF1010707D0029B54
:10334000594698470028C0F25A83013512E21822E4
:1033500000210AA813F058FA9AF80130252B78D0EA
:1033600000221046964694461646394617F8013B09
:103370002B2B00F09D8000F29480202B00F09B808E
:10338000232B00F09B802EB19DF8306046F00406A0
:103390008DF83060BCF1000F05D09DF8306046F02C
:1033A00008068DF83060BEF1000F05D09DF8306042
:1033B00046F010068DF8306028B19DF8300040F0DE
:1033C00020008DF830002AB19DF8302042F04002F4
:1033D0008DF830209DF8302002F04400442803D1BD
:1033E0006FF386128DF830209DF830202A2B42F0A2
:1033F00080028DF830207BD19DF8312042F001020F
:103400004B1C8DF831201A782E2A9DF831200CBFE4
:103410000121002161F341028DF8312074D15A78E5
:103420002A2A6AD0013300210A26184610F8012BF7
:10343000A2F13007092F40F28E809DF830200E91C6
:10344000C2F3400040EAD17161F341028DF83020AF
:103450005AE00AF102078DF833309DF83130D90770
:1034600040F1498154F8049BB9F1000F07DA9DF847
:10347000302042F004028DF83020C9F100095A07CB
:1034800040F1428154F8048BB8F1000F80F2418181
:103490009DF831306FF341038DF831304FF0FF3834
:1034A00037E12D2B0CD0302B7FF46DAF01225CE780
:1034B0004FF0010C59E74FF0010E56E7012054E799
:1034C000012652E70CFB0202303A33461E4616F83C
:1034D000010BA0F13007092FF4D9994293D09DF840
:1034E00030100D92D20F62F341018DF830108AE74F
:1034F0000B4600224FF00A0CE8E79DF8312042F01D
:1035000004028DF8312002331F4617F8012B6C2A74
:1035100041D025D8682A2BD06A2A46D04C2A4CD0D4
:103520001F4617F8012B9DF831308DF83320782A8B
:1035300000F2D980572A4DD8412A03D0453A022AB1
:1035400000F2D1809DF83230042262F302038DF83C
:10355000323001239EE006FB01213039034664E747
:10356000742A26D07A2ADBD19DF8313006220DE06C
:103570005A78682A9DF8312006D1012161F3C602EC
:103580008DF831209F1CCCE71346022262F3C6035C
:103590008DF83130C5E75A786C2A9DF8312001D179
:1035A0000421EBE713460322F0E79DF831300522B2
:1035B000ECE79DF831300722E8E7BDF8303023F41E
:1035C000F04323F0020343F4804343F00203ADF8D9
:1035D0003030A6E7A2F15801202900F2848001A032
:1035E00050F821F0A9360000E7360000E736000069
:1035F000E7360000E7360000E7360000E736000057
:10360000E7360000E736000045350000E7360000E9
:10361000A936000069360000453500004535000038
:1036200045350000E736000069360000E736000047
:10363000E7360000E7360000E7360000B13600004C
:10364000A9360000CD360000E7360000E73600005E
:10365000CD360000E7360000A9360000E73600004E
:10366000E7360000A93600009DF83210012003F073
:10367000780360F30201402B8DF8321002BF9DF8F1
:10368000301041F001018DF83010632A31D1003B38
:1036900018BF01239DF83020C2F340010B4363F3B0
:1036A00041028DF83020D8E69DF832100220DEE786
:1036B0009DF8322003F07803A3F14000032161F369
:1036C000020243428DF832204341E3E79DF8322065
:1036D000032113F0780F61F302028DF8322014BF3A
:1036E00001230023D6E79DF8303043F001038DF825
:1036F00030300023CEE79DF93020002AB4BFDDF83A
:1037000034904FF0FF39BAE69B077FF5C7AEDDF87E
:1037100038809DF831100023CDE90D339DF832300B
:1037200003F00703012BC1F3C30135D1CB1E042BDA
:1037300022D8DFE803F003090921210054F8043BF3
:10374000DA17CDE90A3206E0073424F00704F4E87A
:103750000223CDE90A239DF8303013F0030659D037
:1037600002983B465246594612F0ADFD0028C0F281
:1037700046810544BA46D9E554F8043B01294FEA8D
:10378000E372CDE90A3202D19DF92830D8E7022947
:10379000E1D1BDF92830D3E7022B29D1CB1E042B70
:1037A00013D8DFE803F0030A0A12120022680A9213
:1037B0000023201D0B930446CDE7E01D20F00700F9
:1037C000F0E80223CDE90A23F5E754F8043B0A9315
:1037D00001294FF000030B9305D19DF828300A937F
:1037E00000230B93B7E70229B5D1BDF82830F6E7DF
:1037F000042B09D1E31D23F0070303F10804D3E9E7
:103800000023CDE90A23A6E7032B04BF54F8043BA9
:103810000A93A0E79DF833007828ABD8622822D815
:1038200025283FF48CAD5828A4D10DF12603009330
:10383000DDE90A0104AB0CAA12F0FFFC8246B8F1E4
:10384000000F0DF126000CDB9DF83020A0EB0A03E1
:103850006FF3861298458DF8302002D9A8EB030348
:103860000D9380463EE06338152883D801A252F8B4
:1038700020F000BFF538000059390000753700000E
:1038800075370000753700007537000059390000A2
:103890007537000075370000753700007537000078
:1038A000B339000081390000853900007537000008
:1038B00075370000CD3800007537000081390000F1
:1038C000753700007537000081390000B8F1000F2E
:1038D000DDF828A00ADB4146504612F064FF0AEBEF
:1038E00000080026BAF1000F0CD143E7504612F051
:1038F00053FFF4E70A9B8DF8103000260DF1100AF3
:103900000DF11108A8EB0A0306B101339DF832202E
:10391000D00668D5023352060D9948BF0E9A0B4463
:1039200048BF9B18B9F1000F76DD9DF83020A9EB58
:103930000309C2F38003039353076DD4500661D586
:1039400046B1029B594630469847002857DB039BF7
:1039500001351E46302356E01E070FD413F0100623
:1039600018BF2026DDE90A23002BBFF65EAF5242C6
:1039700063EB4303CDE90A232D2656E72B26F1E717
:10398000002652E70A9840B30DF1260300930CAAD3
:1039900004AB002112F051FCBDF8323003F0EF030C
:1039A00043F4F04343F010038246ADF83230002672
:1039B00045E70A9B07293FF6DDAEDFE801F00C047E
:1039C000060C08080C0C1D70D4E61D80D2E6EA1720
:1039D000C3E90052CEE61D60CCE6DFF8C8A006467B
:1039E0000AF105088EE7110748BF013393E718462F
:1039F00003935946029B98470028039B04DA11B0B1
:103A0000BDE8F08F20234D444A46002AA5EB09016A
:103A100009F1FF39EBDC0D4636B1029B59463046C1
:103A200098470028EBDB01359DF83230D90601D4E8
:103A30001A0706D5029B5946302098470028DEDB3E
:103A400001359DF83230DB0607D59DF83300029B27
:103A5000594698470028D2DB01350D9E2E44731B32
:103A6000002B16DC029843465246594612F02BFCB6
:103A70000028C4DB0544A944A9EB0503002B7FF70C
:103A800079AE029B5946202098470028B7DB0135C4
:103A9000F2E7029B5946302098470028AFDB0135FA
:103AA000DDE700BF9DB2010010B5084C216811B1DF
:103AB000074815F0CAFD4FF0FF324FF0FF330548BD
:103AC00011F058F92060053010BD00BFDC0F002058
:103AD000FC0700202C08002038B5094C094D204671
:103AE000294615F0B2FD05F18801204615F0ADFD1F
:103AF00020460549BDE8384000220FF091BA00BFCA
:103B0000FC070020E00F00202C0800202DE9F843DE
:103B100005464FF02003EFF3118683F31288BFF3BD
:103B20006F8F0E4B1C689CB10D4FDFF838804FF043
:103B30000C09D4E90132002D08BF13462BB198F8C7
:103B4000142009FB02F2B85C98472468002CF0D1DD
:103B500086F31188BFF36F8FBDE8F883F010002063
:103B600004110020D821002038B51A4B1C7DBFF36A
:103B70005B8F04F01F0301229A40174B6109D04369
:103B800003EB810353E8001F01EA000543E8005CF2
:103B9000BCF1000FF6D1BFF35B8F114213D00F4B76
:103BA0000F4D8BB10C236343EA18E85C517812F097
:103BB00043FE0020FFF7AAFF0C235C432A190023D1
:103BC0002B51C2E9013338BD83F31188BFF36F8FE6
:103BD000EFE700BFD8210020101100203968010054
:103BE000041100202DE9F041334B07461D7D4FF0B5
:103BF0002003EFF3118883F31288BFF36F8F0C2437
:103C00002E4B2F4E6C431A19195D002949D007CA53
:103C100006EB040C8CE8070000221A5588F3118883
:103C2000BFF36F8F0C236B43F218F05CB8B37B1CAF
:103C30000FD0D2F808C02348234A4FF40044002193
:103C40000023ECFB0401FCF75BFA0121381A15F0A4
:103C50006BFF11F029FB0120FFF758FFBFF35B8FCB
:103C600005F01F0201219140184A6B0902EB830302
:103C700053E8002F0A4343E800200028F8D1BFF39F
:103C80005B8F134B33B10C2068433318305C597889
:103C900012F0C6FDFFF768FF11F08EFC0120BDE8B1
:103CA000F0810146284600F015F80028B6D007C874
:103CB000344484E80700B1E7D8210020F810002040
:103CC000041100203F420F0040420F00101100205D
:103CD000216801002DE9F04F85B00E4603A900F0E0
:103CE00041F8039B01931C4BDFF87080D3F800A0D0
:103CF000441E24B24FF400474FF0000B631C04D164
:103D00000025284605B0BDE8F08F019B144A04EB5E
:103D1000440503EB8505C44668685946E0FB07C1C6
:103D200000236046FCF7ECF98146A8680C4AC446BB
:103D30005946E0FB07C100236046FCF7E1F9BAF100
:103D4000FF3F01D0824504D9721CDAD04844B0420A
:103D5000D7D9013C24B2D1E7640100203F420F00D3
:103D600040420F0008B9024B0B600020704700BFB3
:103D7000D8A101000449431E0F3013F8012F8A5CBB
:103D80001A708342F9D17047A3B20100F0B5264EF4
:103D900007460C460FCE8DB001AD0FC50FCE0FC537
:103DA00096E8070085E807003846002F38D0002C39
:103DB00038D0381F2146024610344B780D781B044A
:103DC00043EA0563CD782B438D78043143EA05231C
:103DD0008C4242F8043FF0D1144C04218A07036955
:103DE00016D1C3F30742A55C1A0EA25C42EA056233
:103DF000C3F30725DBB2655DE35C42EA054242EAB4
:103E000003220CAD21F003032B4453F82C3C534008
:103E100050F8042F013153402C290361DED10120D9
:103E20000DB0F0BD2046FBE78CA10100A3B201005C
:103E3000014910220A60704710ED00E072B6404060
:103E400080F31188BFF36F8FBFF34F8F30BF62B61F
:103E5000BFF36F8F704700BF72B6494081F311887E
:103E600020BF80F3118862B6704700BF43B2002BB9
:103E700008DB012200F01F0002FA00F05B09024A91
:103E800042F82300704700BF00E100E043B2002B7E
:103E90000DDB01225B0900F01F0002FA00F0203365
:103EA000034A42F82300BFF34F8FBFF36F8F704771
:103EB00000E100E0054B420900F01F0053F822200A
:103EC000012303FA00F01040704700BF00E100E05A
:103ED00043B2002BA8BF03F1604301F10101B8BF59
:103EE000064B4FEA4111ACBF03F5614300F00F00F0
:103EF000C9B2B4BF195483F80013704714ED00E041
:103F000008B572B6044B9A691AB100229A6115F08D
:103F100019FB62B608BD00BFD821002030BFFFF7F3
:103F2000FDBF00BF0F4A08B50F4B22F07F029A6019
:103F3000BFF34F8FBFF36F8FD3F8882022F4700246
:103F4000C3F88820EFF3148323F0040383F3148869
:103F5000BFF36F8F10F028FD11F070FC00F0D0F966
:103F600010F066FD0000000000ED00E0094A0A497B
:103F700093680968D967094998674B6843F080538B
:103F80004B60002383F31188BFF36F8F9368D86F62
:103F9000704700BFD821002000B1010000ED00E013
:103FA00012498A684FF030001044EFF3098C80E822
:103FB000F01F202080F31288BFF36F8F0C4F4FF05B
:103FC0000066CA698A603E60906F0023936780F341
:103FD000118804B5104600F0D9F9BDE8044002F19B
:103FE000300090E8F01F8CF309887047D82100203A
:103FF00004ED00E01EF0040F0CBFEFF30880EFF3B8
:104000000980816911F8021C0229FFD001B512F064
:10401000AAFB01BD42F8203C009B42F81C3C0A4927
:10402000019B42F8183C029B42F8143C21F001012C
:104030004FF0807342F8043C42F8081C0023203AF9
:1040400002658367704700BF9B5E0100094A034613
:10405000906870B113F1160F806E05D0A0F1400288
:104060009A4205D8834203D2814228BF002070477C
:1040700000207047D821002008B5094B98600D46F4
:10408000144600F083F9204685F30988002163B6C1
:1040900081F31188BFF36F8F0022002311F0FDFE22
:1040A000D821002001B572B60B4A906900281EBFC6
:1040B0000021916115F046FA62B6EFF30580A0F198
:1040C00010004FEAC0000549014409C99847BDE8FE
:1040D0000140034908470000D8210020749F0100D7
:1040E000E5400000044B9968D869884203D0034931
:1040F0004FF080520A607047D821002004ED00E0A4
:1041000038B51C4B14469A6A9A6A9A6A0546900713
:1041100020D5586B9A6A12061CD519B19A6A22F0FA
:1041200080029A629A6A9A6A9A6AD20615D49B6A3F
:104130009B0712D400200F4B9A6A920642BF5A6A1C
:1041400022F400525A629A6A42F0FF029A620023F5
:10415000237038BD6FF01500E4E7064B5B68190566
:10416000E8D52946FFF772FF0028E3D080F30988DD
:104170000220E0E700ED00E00D4B9A6A9A6A9A6A25
:10418000920508D59A6B9A6A120404D518B19A6AF6
:1041900022F400429A62064B9A6A9A6AD20558BF84
:1041A0009A6A9A6A002042F47F429A6208707047C5
:1041B00000ED00E070B5484B5B688AB00D46C3F374
:1041C0000803002686F31188BFF36F8F02F07F414A
:1041D000B1F17F4F11D102F00C0108290DD0110768
:1041E00001D4054601260022033B8DF80720032B4E
:1041F0006BD8DFE803F00455595D3546F3E7364BDD
:10420000DC6A14F0020460D1DA6A002A15DBDA6A8B
:10421000520012D5AA6932F8021C4DF60272914280
:104220000AD093F828200AB30DF10702012128468D
:10423000FFF766FF044600E02C689DF807309BB945
:104240002022294602A812F0D4FA099B002E3ED063
:10425000C3F3080222B96FEA53236FEA4323099399
:1042600002A9204612F07DFA0AB070BD93F8292009
:104270002AB10DF107010120FFF77EFFDAE75A8D21
:1042800092B2002AD9D09A6A9A6A9A6A9A6A9A6A03
:104290009A6A9A6A6FEA02426FEA12429A62CCE71D
:1042A0000DF107020021C2E70DF107010020E3E74D
:1042B000094B9A6A9A6A9A6A9A6A9A6A9A6A9A6A8E
:1042C0006FEA02426FEA12429A620024B5E723F4D1
:1042D000FF7323F00103C2E700ED00E0024A5369D7
:1042E00043F010035361704700ED00E0EFF30880E6
:1042F000EFF3098101B57246FFF75CFF01BD00BF16
:10430000044800232021C2180133302B82F8001307
:10431000F9D1704700E100E015F0A6FD202080F300
:10432000118808484FF40461401880F30988EFF3BE
:1043300014800221084380F31488BFF36F8FFFF7C6
:10434000F1FD000000370020084B9B6883420BD131
:10435000EFF3058343B1064B5A6842F080525A602E
:104360005A6A22F400425A6211F0F6B9D8210020AC
:1043700000ED00E0024B034A0348012100F06EB853
:104380000000042000000020D8A10100826E054B2F
:10439000403A1A60044A4021C3E90112184601213B
:1043A00000F066B81411002000000B15F0B51F4F87
:1043B00000268E4201DB1046F0BD44689CB353B129
:1043C00004F1FF3C14EA0C0F18D11F2C16D9056814
:1043D0001CEA050F12D1202C0568D0F808C0D2B213
:1043E0000FD9B4F1004F0ED8013CB4FA84F4C4F1F3
:1043F0001F046400072A4CEA040406D96FF0150272
:10440000D9E70824F6E73E24F4E725F01F05154315
:1044100045F0100544F00104C7F89820C7F89C50F7
:104420000132C7F8A04001360C30C2E700ED00E0D1
:10443000044B0522C3F89420BFF34F8FBFF36F8F57
:10444000704700BF00ED00E0BFF35F8F024B00221A
:10445000C3F89420704700BF00ED00E010B5034C96
:1044600001232278FFF7A2FF207010BD3022002028
:1044700008B5094A00231278FFF798FF10F1160FCC
:1044800002D0064A072800DD08BDC2F89800C2F82D
:10449000A0300130F6E700BF3022002000ED00E040
:1044A00014490868082810B521D8FFF7CDFF124C31
:1044B00049680022904201F10C0105D10F4B1870A0
:1044C000FFF7B6FF002010BDC4F8982051F80C3C4F
:1044D00023F01F03134343F01003C4F89C3051F83A
:1044E000043C43F00103C4F8A0300132E2E74FF08E
:1044F000FF30E8E7E4A1010000ED00E030220020F9
:10450000014B1860704700BF6801002010B54FF0E4
:104510002003EFF3118083F31288BFF36F8F114AEA
:104520000123C2F840354FF080424FF08051C2F86D
:104530007835D1F83041082C08D1D1F8341105294B
:1045400004D8094C615C09B1C2F838364FF0804399
:104550000122C3F8802580F31188BFF36F8F0020FC
:1045600010BD00BF00E00140B2B3010020B1034B19
:10457000800143F001031847704700BFD0A101003C
:1045800030B4034608461A78012A13D0022A26D0EE
:1045900072B9154A02F1100452F8045B41F8045B49
:1045A000A242F9D15B8812780A7043731B0A8373A5
:1045B00030BC70470C4A02F1100452F8045B41F819
:1045C000045BA242F9D15B6812780A70C3F3072238
:1045D00043731B0CC3731B0A82730374E8E730BC7C
:1045E0001122194612F005B9B8B3010038B50546D5
:1045F000054814F025FA044620B10021083014F0D3
:1046000044FA2575204638BDF40800200B460B49B6
:104610000246D1F8300110B520B9BDE810400120A4
:10462000FFF7E4BF14F042FA0123002103758181F2
:104630000446083014F029FA204610BD000000207E
:1046400070B504460F2C0D461046194605D80D2CA2
:1046500012D9BDE87040FFF7D9BF132C0CD10B481D
:1046600014F0EEF9044628B10021083014F00DFAD8
:1046700001232375204670BD02460B460DB1044848
:10468000EEE7BDE870400120FFF7B0BF2009002031
:104690007008002038B583681A7872B9B3F8014001
:1046A000204601F07BFC054640B9084B1A8822B928
:1046B0006FEA04506FEA1050188038BD012101F0F4
:1046C00075FC2846BDE8384012F0C5BC1822002011
:1046D00010B501210446083014F043FA2146034A7C
:1046E0000078BDE81040082312F015B934A201008B
:1046F000F8B5074690790E4614460DF07DFF284B1D
:1047000083424BD120460DF07FFF264D0C2303FB47
:1047100000504388BB4241D1234FD7F8300120B12C
:104720000EF02EF80023C7F8303120460DF06CFF54
:104730000C2707FB005043689BB196B920460DF04B
:1047400063FF07FB005001214268D2E90003127A9F
:1047500003F01F07B9405B09D2B100EB830012F0F0
:1047600030F920460DF050FF0C2707FB00508368FE
:10477000A3B120460DF048FF78432E5420460DF09B
:1047800043FF07FB0055A868BDE8F84010F026BBC2
:10479000C94300EB830012F089F9E2E7F8BD00BFDE
:1047A000C8080020201100200000002038B5042196
:1047B0000446083014F0D5F945780178408822463F
:1047C000FFF796FF25B10348BDE8384010F006BB5F
:1047D00038BD00BF1801002038B503210446083059
:1047E00014F0BFF9A36805781978B0F801002246E3
:1047F000FFF77EFF25B10348BDE8384010F0EEBA60
:1048000038BD00BF1801002010B5C1E900239DF894
:1048100008300B720C460DF0F7FE034B0C2202FB26
:1048200000335C6010BD00BF201100202DE9F0476F
:104830004FF0FF324FF0FF3306461748174D0F4633
:1048400014F0FEF8044600F1080A00214FF00008B9
:10485000504614F01AF984F8148020460DF0D4FE66
:104860004FF00C0909FB0050468020460DF0CCFEAD
:1048700009FB0050C0F8088020460DF0C5FE09FB7A
:1048800000550321C5F80480504614F041F98770A3
:1048900006802046BDE8F087C808002020110020CF
:1048A000F0B5154687B00C4621B9FFF7BFFF0446A7
:1048B000002848D001220021684614F017FF204646
:1048C0000DF0A2FE214F0C2303FB0070C0F808D0AE
:1048D000204614F0EBF801461D4814F0DAF84FF4C6
:1048E000A0220023684610F09FFA064680B1194ABC
:1048F00019491A4840F22B1311F0FBFC18483146B5
:1049000011F0F7FC404080F311884FF0030002DF04
:1049100020460DF079FE0C2358433E5C56B12046EC
:104920000DF02EFF092E0CBF6FF06E006FF004002B
:1049300007B0F0BD15B12C603046F9E720460DF008
:104940001FFF2846F4E76FF06800F1E72011002010
:1049500034010020C9B30100FDB3010006B4010019
:1049600023B40100F0B587B006460DF10B0100201D
:1049700000F0ECFE044600283DD1192142F20D0062
:10498000FFF754FF0746C8B31921083014F0C0F8E8
:1049900019220546214611F037FF9DF80B302B7385
:1049A00006F18801681D11F0CBFF164A2C7193891E
:1049B0002B80D3896B80B6F8A030A5F80D30B6F8FF
:1049C000A230A5F80F30B6F8A430A5F81130B6F82B
:1049D000A630A5F81330012300930C230DEB03013F
:1049E000CC323846FFF710FF2246394642F20D001E
:1049F000FFF756FF0446204607B0F0BD6FF068048D
:104A0000F9E700BF0000002030B5002187B042F276
:104A10000E00FFF70BFF00250C2304460DEB0301EE
:104A2000054A0095FFF7F0FE2A46214642F20E00A5
:104A3000FFF736FF07B030BDCC0000202DE9F04372
:104A4000B0F801807C4A067811886FEA08536FEA53
:104A500013539BB299424FF0000708BF178089B0EB
:104A600005461FFA88F908BF012706B3022E1BD19D
:104A700000210622084601F049FC044688B146722E
:104A8000002101F093FABFF35B8F6368BFF35B8F84
:104A9000DD0703D53146204601F088FA204612F0A2
:104AA000DAFA002000F01EFF09B0BDE8F0830379B8
:104AB000023B012B00F1040426D8214606A811F080
:104AC0003FFF9DF818300622023B05F111010DF160
:104AD00011008DF8183011F08CFE01238DF8103084
:104AE000E87860B9062206A901F010FCEB780446CC
:104AF00023B952486FF4805111F0D8FFBCB91F217F
:104B0000484612F058F8CFE7C378012B04BF4C4B4E
:104B100093F867602146304612F0B3F9014606A8C3
:104B200011F00EFF214604A811F00AFFD8E7204635
:104B300006A920F8888B11F003FF2A7EEB7D43EA5B
:104B40000223A4F89E30AA7E6B7E43EA0223A4F8D7
:104B5000A4302A7FEB7E43EA0223A4F8A630EB7848
:104B6000E370002262726BB904A904F1960011F09F
:104B7000E7FE217A324BC1EBC101194404F18F00E9
:104B800011F0DEFE0721204601F010FA1FB10121CD
:104B9000204601F00BFA204612F060FAA37A072BA8
:104BA00042D1BFF35B8F6368254EBFF35B8F13F475
:104BB000805F18D1E3781BB196F8D030180712D572
:104BC000022142F21600FFF731FE054658B10221DC
:104BD000083013F09DFF238803800022294642F20B
:104BE0001600FFF75DFE96F8D130D90706D50021F3
:104BF000022300911A46204612F016F896F8D0309B
:104C00009A0611D5D6F84C319B689B070CD50DF14F
:104C10000E0103A811F0B5FF30B9BDF80E20BDF8A4
:104C20000C10204611F0E2FF204612F014FAE3784F
:104C3000002B7FF439AF34E718220020CC0000208D
:104C400000000020024BD3F84C315B69184700BFCD
:104C50000000002038B505460C4619B9FFF7E6FDFF
:104C6000044698B140F635439D4209D12046FFF7EE
:104C7000E9FF054610B120460DF082FD284638BDFB
:104C80000448214613F005FF0025F7E76FF068059B
:104C9000F4E700BF340100202DE9F84FDFF8088168
:104CA000DFF808A1D8F80C3041486FF35233C8F848
:104CB0000C3001F037F9451C3B484FF0FF324FF004
:104CC000FF33294610F00CFF60B13A493A4840F6EC
:104CD000AB13524611F00DFB404080F311884FF0AA
:104CE000030002DFDFF8D4902F4EA9F59A77A9F1DF
:104CF0001C0B15B910F088FCD4E7F368C3F34533F7
:104D0000042B47D1337B002B47D100220023484698
:104D100013F09BFE044660B92949274840F6421328
:104D2000524611F0E6FA404080F311884FF003003C
:104D300002DF4FF0FF324FF0FF33584610F074F8A7
:104D4000D7F8300120B10DF01BFD0023C7F830313A
:104D5000204613F0ABFEC7F830012046FFF772FF84
:104D6000C0B1184810F03AF820460DF04DFC164B33
:104D70000C2202FB00301F2140882246FFF7B8FCBE
:104D8000D7F830010DF0FCFC00232046C7F8303185
:104D90000DF0F6FC1436013DABE7012BFAD130697A
:104DA000383801F0BBFCF5E76C010020C9B3010005
:104DB00080010020FDB3010006B401003401002091
:104DC00043B4010018010020201100202DE9F0411A
:104DD000044600F10806304613F0DBFEB4F80C8000
:104DE000B8F1010F05460CD81C4A1D491D4840F674
:104DF000475311F07EFA404080F311884FF00300D2
:104E000002DF3046022113F0ACFE0746007811F0B5
:104E100070FDC20706460CD4104A1349114840F6EB
:104E20004B5311F066FA404080F311884FF00300B5
:104E300002DF05230D4A3878214611F06CFDB307D7
:104E400007D52069A4F80C8010FA85F5A560BDE8A7
:104E5000F0812046BDE8F0410DF092BCC9B30100DD
:104E600047B4010006B4010060B40100A4A201002F
:104E700070B5037D012B044636D0032B63D18389A3
:104E8000032B0CD8324A3349334840F2CF1311F088
:104E900030FA404080F311884FF0030002DF042114
:104EA00004F1080013F05DFEFF2243880688627556
:104EB000A289C6F30B009A42E08203D020460DF08F
:104EC0005FFC0FE001F06AF805460028F6D001F01B
:104ED00043F9320B60752146284612F034F8284613
:104EE00012F0B9F8002070BD8389012B0CD8184A44
:104EF0001849194840F62F1311F0FBF9404080F390
:104F000011884FF0030002DF022104F1080013F0C2
:104F100028FE0546007811F0ECFC83070CD40C4AFF
:104F20000E490D4840F6331311F0E3F9404080F389
:104F300011884FF0030002DF094A28780423214634
:104F400011F0E9FCBAE70DF01BFC6FF01500CAE7A1
:104F5000C9B3010047B4010006B4010079B40100EF
:104F600084A2010010B5037D012B04460CD0094A30
:104F700009490A4840F69D5311F0BBF9404080F3BF
:104F800011884FF0030002DF2046FFF71FFF0020CB
:104F900010BD00BFC9B30100A7B4010006B40100F1
:104FA000084A0346D2F84C0130B9D96839B1596979
:104FB00029B1C2F84C3170476FF0770070476FF03D
:104FC000150070470000002008B50448042111F0C6
:104FD000F8FCBDE80840002000F084BCCC000020B4
:104FE00073B53F4DD5F84C31996811F0010123D1CB
:104FF00001AA40F60340FFF753FC044600286BD19A
:10500000019B9B681B78A3B900F066FCBFF35B8F24
:105010002B4653F8CC2FBFF35B8F02F00902BFF38E
:105020005B8F53E8001F43E800200028F9D1BFF34D
:105030005B8F01980DF0A4FB01AA002141F203004F
:10504000FFF72EFC0446002846D1019B25489968AD
:105050000822013111F0CDFB01980DF091FB2146A2
:1050600001AA41F20100FFF71BFC0446002833D1DE
:10507000019883685A7885F86820D9789A7842EA46
:105080000122A5F86A201A7985F86920197ADA7957
:1050900042EA0122A5F86C205A799B7942EA03235F
:1050A000A5F86E300DF06CFB214601AA41F202001A
:1050B000FFF7F6FB044678B9019B0B48996840223C
:1050C000013111F096FB01980DF05AFB95F8743000
:1050D0005E060BD46FF01204204602B070BD00BF14
:1050E000000000207000002078000020214601AA66
:1050F00042F20300FFF7D4FB04460028ECD1019BE9
:10510000A14899680822013111F073FB01980DF054
:1051100037FB214601AA42F20200FFF7C1FB044619
:105120000028D9D1019B9B68B3F80120A5F8FC2089
:1051300091B221B1DA789548114614F0D7FA019866
:105140000DF01EFB95F8746016F0200600F0F98053
:1051500095F894301C0712D501AA002142F21C00D8
:10516000FFF79EFB04460028B6D101988368D3F868
:105170000120D3F80530C5E936230DF001FB95F881
:10518000D030980623D50DF10201684611F0F9FCE4
:1051900004460028A0D1042142F22400FFF746FB78
:1051A0000646002800F0D4800421083013F0B0FC3B
:1051B000BDF800300380BDF80230438022463146FE
:1051C00042F22400FFF76CFB0446002884D108213A
:1051D00042F20100FFF72AFB0446002800F0B880E5
:1051E0000821084413F094FC95F8D02012F0020F27
:1051F00014BF2F230F23910695F8D12048BF43F009
:10520000400312F0090F18BF43F40063002203703B
:10521000C3F3072343708270C270027142718271BE
:10522000C271214642F20100FFF73AFB0446002812
:105230007FF452AF95F87430B5F8FC109A0600F17F
:105240009C80D9B901AA41F20500FFF729FB044669
:1052500000287FF441AFB5F8FC3063B9019B9B682F
:105260005A78997842EA0122A5F8FC209A884748A2
:10527000114614F03BFA01980DF082FA082140F62D
:105280000140FFF7D3FA0446002861D00821084402
:1052900013F03EFC10230370882300224370022683
:1052A00020238270C670027142718271C3712146DF
:1052B00040F60140FFF7F4FA044600287FF40CAFF3
:1052C000014601AA4FF60140FFF7EAFA044648BB3F
:1052D00001980DF055FA214601AA4FF60240FFF75A
:1052E000DFFA0446F0B9019B29489968324601313A
:1052F00011F07FFA01980DF043FA95F8B9305B0789
:1053000010D501AA21464FF60340FFF7C9FA48B964
:10531000019B204899680122114411F06AFA019812
:105320000DF02EFA00F032FA044600287FF4D4AED5
:1053300001F05AFA044600287FF4CEAEFFF744FE8F
:10534000CAE6022140F66D40FFF770FA044610B934
:105350006FF06804C0E60221083013F0D9FB012386
:10536000037046702146324640F66D40FFF798FACA
:10537000044600283FF4ECAEAEE600297FF47EAF91
:105380006FF00404A8E600BFD00000200001002058
:10539000B9000020B800002010B5FFF721FE034B34
:1053A0001B6813B1BDE81040184710BD381100202C
:1053B00070B5264DD5F84C3188B00646002B3FD04D
:1053C0006FF0020105F1CC0011F070FB012111F02A
:1053D000F8FA10EA010436D11D4B1E600A4605F5A5
:1053E0008C7014F083F905F59A7014F022F90022FC
:1053F0000023CDE906236FF00803CDE90243CDE990
:105400000044144B144904944FF4806213480FF085
:105410000DFC1349114814F090F8D5F84C31DB68B5
:105420009847044648B926B908B0BDE87040FFF770
:10543000D7BD05F1BC000FF03DFE204608B070BDA1
:105440006FF01204F9E76FF07704F6E70000002030
:1054500038110020994C0000C0260020500900207F
:10546000CAB4010000487047D0B40100F8B50B4F32
:1054700006460025FB79ECB2A34202D86FF0010486
:1054800009E0C4EBC40107223944304611F0A0F909
:1054900001350028EED12046F8BD00BF00000020F5
:1054A00038B514490622054611F092F90446E0B1D8
:1054B000062142F20500FFF7B9F90446B8B1062209
:1054C0002946083013F02AFB2146002242F205004B
:1054D000FFF7E6F9044640B906220648294611F0CE
:1054E00088F9054B012283F86020204638BD6FF013
:1054F0006804FAE7610000200000002030B504468F
:1055000085B00D46A1B10023072202A928460293C7
:10551000CDF80B3011F05CF950B11248C4EBC40463
:1055200007222946204411F064F9002005B030BD5F
:10553000684611F0D0F90028F8D16846FFF796FFC9
:105540000028F5DA0748C4EBC4040444072269467E
:10555000204611F04EF9002DE7D0072221462846BB
:10556000E1E700BF0000002073B50C46054618B9FE
:10557000ECB16FF0150018E0002307226946009394
:10558000CDF8033011F024F90028F1D02B78012B4D
:10559000EFD1AB7903F0C003C02BEAD12846FFF767
:1055A00065FF0028E4DB6FF0770002B070BD134E9A
:1055B000F379012B1ED0BFF35B8FD6F8CC30BFF34D
:1055C0005B8FDB070BD4002DD3D00722694628461A
:1055D0000094CDF8034011F0FBF80028C9D0F4790D
:1055E0002946631C2046F371FFF788FF002808BF97
:1055F0002046DAE76FF00B00D7E700BF000000207D
:1056000070B586B0064601AA002141F20900FFF7F5
:1056100047F9044670B9019B02909D68ADF80C00F3
:105620000135062202A9284611F0D2F820B90198C6
:105630000DF0A6F8002016E00C4B186804909B882B
:10564000ADF81430062204A9284611F0C1F800284C
:10565000EDD006222946701C11F0CBF80198347069
:105660000DF08EF8012006B070BD00BFBFA1010093
:1056700007B56846FFF7C4FF044BD87118B16946F7
:105680000020FFF73BFF03B05DF804FB00000020A3
:105690002DE9F341154B93F8BA4014F00104074685
:1056A0000E4615D001AA00214FF60940FFF7F8F881
:1056B0000546C8B9019B9B685C78B44228BF344654
:1056C0004FF016089E1CA54206DB01980DF058F815
:1056D000204602B0BDE8F08108FB05701622314675
:1056E00011F087F80135EEE70024F1E70000002013
:1056F000F0B5154EF47989B0F4B9012102A8FFF78D
:10570000C7FFF071C0B1162702ABE5B207FB053148
:1057100006220DF1010011F06CF8012369462846BC
:105720008DF80030FFF7EAFE20B9F2790134E3B2D8
:105730009A42E9D809B0F0BD0021084609B0BDE899
:10574000F040FFF711BF00BF0000002038B5074C44
:105750002378012B0D4603D023782B70002038BD11
:10576000601CFFF79DFE0028F6D0F8E7000000203F
:1057700010B5054B1B780B7000200C4611F083FB15
:1057800008B90123237010BD0000002010B50A4C99
:10579000E3790BB1002010BDFFF76AFF0028FAD1B2
:1057A000E379002BF6D1FFF7A3FF0028F3D1601CAB
:1057B000BDE81040FFF774BE00000020034BBFF3AC
:1057C0005B8F1868BFF35B8F704700BFCC00002071
:1057D00030B5022187B0044642F20C00FFF726F8EC
:1057E000054608B30221083013F092F9012C024655
:1057F00017D1FFF7E3FFC0F340205070631E147011
:105800005C425C410A4A009403A928460623FEF73D
:10581000FBFF0022294642F20C00FFF741F807B0D7
:1058200030BD00234370E9E76FF06800F7E700BF81
:10583000CC00002073B5054614460E460722002111
:10584000684610F0E1FF00238DF806306B1E5842C9
:105850000DF105015841ADF803408DF80050ADF849
:105860000160FFF785FF044638BB072142F20B00B9
:10587000FEF7DCFF064648B307226946083013F0FE
:105880004DF92246314642F20B00FFF709F8044673
:1058900098B90120FFF79CFF044670B9012D0FD184
:1058A000BFF35B8F0B4B53E8002F42F4807243E849
:1058B00000210029F7D1BFF35B8F204602B070BDF5
:1058C0006FF48071034811F0F2FAF6E76FF06804A4
:1058D000F3E700BFCC000020014B00221A607047A4
:1058E0004411002038B50546FFF768FF0106C0F3F4
:1058F000C01201D5002031E0FFF760FF430628D435
:1059000000210622084600F001FD044638BB0222B1
:10591000014600F0FBFC0028ECD0BFF35B8F114B7D
:1059200053E8002F42F4007243E800210029F7D128
:10593000BFF35B8F11F08FFB002D204618BF302284
:10594000BDE838400ABF122260214FF40061FFF722
:1059500071BF1046FFF73CFF0028D1D038BD11F0D1
:105960007AFBC7E7CC0000202DE9F04F00F10808D2
:105970008DB00446404613F0FCF8DFF8ACA10646B3
:1059800016B90DB0BDE8F08FA389082BF9D909210C
:10599000404613F0E6F8017A7F238DF8263043184D
:1059A00001225B7A8DF82530FF238DF82430002307
:1059B000ADF82A30ADF82C2002788DF82720042A83
:1059C0009CBF5A4B9B5CADF828308BB2054600F16A
:1059D00001090193FFF7F2FE07060BD5BDF8283049
:1059E000580707D5297A40460131013E13F0B1F836
:1059F000F6B2C5E76B789A1E012A48D807224946B5
:105A000004A810F0F6FE9DF81030023B8DF810301F
:105A100004AB0893DAF80030A3B1404613F0B9F8AC
:105A2000019BA7899DF82720A38183469DF9251016
:105A3000DAF800C004A84346E0472069A78110FABD
:105A40008BF0A0603A4B1A68002A33D052F80879DC
:105A500007B1083F1368039293B1404613F099F8D9
:105A6000A389039A0293019BA3818346126808A825
:105A7000414690472069029BA38110FA8BF0A060F9
:105A8000C7B1BB6803B1083B3A461F46E2E7FF2BAC
:105A900009D1002306930722CDF81B3006A904A8DC
:105AA00010F0A7FEB4E74946002011F0EAF90722FA
:105AB0000146F4E7BDF82820FFF780FE0106C0F399
:105AC000C01B8FD4D2078DD5022204A9584600F0FE
:105AD0001DFC0746002885D0FFF770FE430611D451
