:1000000000400020E12F0000D7A70100B52F00001D
:10001000B52F0000B52F0000B52F00000000000034
:10002000000000000000000000000000BD2C0000E7
:10003000B52F000000000000692C0000B52F000063
:100040006D2D0000D92601006D2D00006D2D0000E2
:100050006D2D00006D2D00006D2D00006D2D000038
:100060006D2D00006D2D00006D2D00006D2D000028
:100070006D2D00006D2D00006D2D00006D2D000018
:100080006D2D00006D2D00006D2D00006D2D000008
:100090006D2D00006D2D00006D2D00006D2D0000F8
:1000A0006D2D00006D2D00006D2D00006D2D0000E8
:1000B0006D2D00006D2D00006D2D00006D2D0000D8
:1000C0006D2D00006D2D00006D2D00006D2D0000C8
:1000D0006D2D00006D2D00006D2D00006D2D0000B8
:1000E0006D2D00006D2D00006D2D00006D2D0000A8
:1000F0006D2D00006D2D00006D2D00006D2D000098
:1001000053B94AB9002908BF00281CBF4FF0FF317E
:100110004FF0FF3000F00CB8ADF1080C6DE904CEE3
:1001200000F008F8DDF804E0DDE9022304B07047D0
:10013000704700BF2DE9F04F07468C460846099EE0
:1001400015463C461946002B40F0C6808242B2FA62
:1001500082F746D94FB1C7F1200E24FA0EFE00FAFD
:1001600007F3BD404EEA030CBC404FEA15481FFAA6
:1001700085FEBCFBF8F9220C08FB19C309FB0EFA3B
:1001800042EA03439A4528D9EB1809F1FF3004D21B
:100190009A4502D9A9F102002B44A3EB0A03A4B2A9
:1001A000B3FBF8F208FB123302FB0EFE44EA0344F1
:1001B000A64514D92C1902F1FF3303D2A64501D963
:1001C000931E2C44A4EB0E0443EA00401EB1FC40F5
:1001D000002334607360BDE8F08F4846DDE71346C6
:1001E000F0E702B9FFDE87BB831A01214FEA154E03
:1001F000AAB2B3FBFEFC200C0EFB1C330CFB02F876
:1002000040EA0343984563D9EB180CF1FF3004D260
:10021000984502D9ACF102002B44A3EB0803A4B229
:10022000B3FBFEFC0EFB1C330CFB02F244EA03445E
:10023000A2424FD92C190CF1FF3304D2A24202D9A9
:10024000ACF102032C44A41ABEE7C7F1200C20FA3B
:100250000CF800FA07F324FA0CFCBD404CEA030248
:100260004FEA154EABB2B8FBFEFC110C0EFB1C8026
:100270000CFB03F941EA0040814504FA07F423D955
:1002800028180CF1FF3104D2814502D9ACF10201EA
:100290002844A0EB090092B2B0FBFEFC0EFB1C0050
:1002A0000CFB03F842EA004398450FD9EB180CF118
:1002B000FF3204D2984502D9ACF102022B44A3EBE1
:1002C000080342EA014191E76146E2E76246F6E748
:1002D0006046A2E76346B6E7834205D90EB1C6E998
:1002E00000700021084676E7B3FA83F181B98342B2
:1002F00001D3BA420AD8BC1A60EB030301209C4622
:10030000002E68D0C6E9004C002164E70846F7E7F4
:10031000C1F1200C8B4022FA0CF41C4302FA01F5C7
:1003200000FA01F327FA0CF220FA0CFB4FEA144909
:100330001343BBFBF9F81FFA84FE09FB18BB1A0C28
:1003400008FB0EFA42EA0B42924507FA01F73ED942
:10035000A21808F1FF3004D2924502D9A8F1020098
:100360002244A2EB0A029BB2B2FBF9F809FB182265
:1003700008FB0EFE43EA024296452AD9A21808F16C
:10038000FF3304D2964502D9A8F10203224443EA7E
:100390000040A0FB0593A2EB0E029A42CE4698467F
:1003A00002D306D14F4504D2B9EB050E63EB040826
:1003B000013886B1B7EB0E0362EB080707FA0CFCB5
:1003C000CB404CEA0303CF40C6E900379CE74046E8
:1003D000C7E74346DBE73146FDE6000000000000CA
:1003E00073B5404DD5F85431996811F0010123D10E
:1003F00001AA40F6034003F09DFB044600286ED19D
:10040000019B9B681B78A3B904F092FCBFF35B8F40
:100410002B4653F8CC2FBFF35B8F02F00902BFF3DA
:100420005B8F53E8001F43E800200028F9D1BFF399
:100430005B8F019815F06EFC01AA002141F20300C8
:1004400003F078FB0446002849D1019B26489968AF
:10045000082201311AF0FDF9019815F05BFC2146E4
:1004600001AA41F2010003F065FB0446002836D1E1
:10047000019883685A7885F86820D9789A7842EA92
:100480000122A5F86A201A7985F86920197ADA79A3
:1004900042EA0122A5F86C205A799B7942EA0323AB
:1004A000A5F86E3015F036FC214601AA41F2020093
:1004B00003F040FB044690B9019B0C489968402228
:1004C00001311AF0C6F909481AF040FA019815F0FE
:1004D00021FC95F874305A060AD46FF012042046B5
:1004E00002B070BD000000207000002078000020E5
:1004F000214601AA42F2030003F01CFB0446002837
:10050000EDD1019BB4489968082201311AF0A1F994
:10051000019815F0FFFB214601AA42F2020003F008
:1005200009FB04460028DAD1019B9B68B3F801203F
:10053000A5F8FC2091B221B1DA78A84811461EF046
:10054000C8F9019815F0E6FB95F8746016F02006DE
:1005500000F0198195F894301B0712D501AA0021EB
:1005600042F21C0003F0E6FA04460028B7D10198D5
:100570008368D3F80120D3F80530C5E9362315F098
:10058000C9FB95F8D0309E0623D50DF102016846CF
:100590001AF051FC04460028A1D1042142F22400A3
:1005A00003F06CFA0646002800F0F48004210830BD
:1005B0001DF0ABFCBDF800300380BDF80230438075
:1005C0002246314642F2240003F0B4FA04460028E1
:1005D00085D195F8D0305C0610D501AA002142F2F1
:1005E0002A0003F0A7FA044600287FF478AF0198A8
:1005F00083685B7885F8183115F08CFB082142F28E
:10060000010003F03BFA0446002800F0C3800821F3
:1006100008441DF07AFC95F8D01011F0400F024606
:1006200040F2022308BF032388074CBF43F02C008D
:1006300043F00C008B0695F8D13048BF40F04000E5
:1006400013F0090F95F89A3018BF40F4006003F0DA
:100650000603CE0748BF40F01000062B08BF40F449
:10066000C07000211AF0CAFA2146002242F20100AD
:1006700003F060FA044600287FF431AF95F8743037
:10068000B5F8FC10980600F19A80D9B901AA41F298
:10069000050003F04FFA044600287FF420AFB5F8B8
:1006A000FC3063B9019B9B685A78997842EA012231
:1006B000A5F8FC209A88494811461EF00AF90198CD
:1006C00015F028FB082140F6014003F0D7F9044655
:1006D00000285FD0082108441DF017FC95F8D030A1
:1006E000D907024670D53AA1D1E900011AF086FA7D
:1006F0002146002240F6014003F01CFA044600287F
:100700007FF4EDAE014601AA4FF6014003F012FA64
:10071000044648BB019815F0FDFA214601AA4FF6A0
:10072000024003F007FA0446F0B9019B2C4899688F
:10073000022201311AF08DF8019815F0EBFA95F8C4
:10074000B9305B0710D501AA21464FF6034003F0EC
:10075000F1F948B9019B23489968012211441AF024
:1007600078F8019815F0D6FA04F00CF80446002841
:100770007FF4B5AE05F09EF9044600287FF4AFAED5
:1007800003F050FCABE6022140F66D4003F076F931
:10079000044610B96FF06804A1E6022108301DF08C
:1007A000B4FB0123037046702146324640F66D408B
:1007B00003F0C0F9044600283FF4CCAE8FE60029D0
:1007C00080D16FF004048AE607484FF000518DE7AE
:1007D0009088000200800020D0000020000100204E
:1007E000B9000020B80000201088000200000000BE
:1007F0002DE9F041D0E90B35866A5C193034A64208
:100800008846174618D81C4DA3FB050118A3D3E949
:100810000023FFF775FCA41B20F07F40C8F8000000
:1008200013A3D3E90023A4FB0501FFF769FC20F023
:100830007F403860BDE8F0810F4C0DA3D3E9002361
:10084000A6FB0401FFF75CFC05F1300120F07F40BE
:10085000C8F8000006A3D3E90023A1FB0401FFF7B9
:100860004FFC20F07F403860BDE8F081AFF300809E
:100870008D49FD1A0700000000CA9A3B00000000E5
:100880002DE9F04FA54C8FB094F86A30002800F0A5
:100890002E8113F0010740F0AB8194F8292094F8E1
:1008A000353004EB820204EB8303D2F82C80D3F8BA
:1008B0003890B8F1000F22D0454615F8020BC0F36E
:1008C000801009F0D7FC06220146284619F0C1FF26
:1008D00098F800305A0606D52846062108F004FA92
:1008E000002800F0C1814D4615F8020BC0F38010BE
:1008F00009F0C0FC06220146284619F0AAFF98F824
:10090000003013F00E0F40F0DF80236A23B10C2774
:1009100038460FB0BDE8F08F0BF06EFD8246002820
:1009200000F0AC810BF074FD8346002800F0AB8131
:100930000DF00EFE0546002800F0A281406F4FF634
:10094000FF732B8505F11C03002800F0938105F14E
:10095000680205F164010B9308F0D2F9B5F8602044
:100960006F4B22F4EF6222F0070242F4887242F0E9
:100970000102A5F8602095F8392002F03F0262F0EC
:100980007F0285F8392095F87A2022F0070285F851
:100990007A2095F83C2022F0070285F83C2095F853
:1009A000D82022F0070285F8D8204FF01B1200262D
:1009B000C5E916230622A5F8C020C5E912666E67B0
:1009C000A5F87860EE852E6385F83B602E65A5F866
:1009D000C460A5F8C860A5F8D060A5F8CC60A5F8FB
:1009E000E46085F8E660C5F80861A5F80C61A5F833
:1009F00020610BF043F895F83A21A5F8386122F010
:100A0000030285F83A2195F87A20A5F8406122F092
:100A1000180285F87A2095F8662185F8436122F05E
:100A2000070285F8662195F88621C5F844A166F38A
:100A3000451285F8862195F8AE21A5F8646166F324
:100A4000C302C5E94A0100210020C5E94C0185F82F
:100A5000AE2185F8D960A5F88461C5F8E060A5F8F5
:100A6000AC61A5F8B8610EF0B9F8A5F8D2000EF0A7
:100A7000BBF8D5F8BC112B4AA5F8D4000A40C5F83C
:100A8000BC210EF0B7F895F8C02160F3020285F89A
:100A9000C0210EF0B5F80B9B236295F8C031C5F864
:100AA000C46160F3C503C4E918ABC5E97466C5E960
:100AB0007266C5E905662E70ED6185F8C03112F0E9
:100AC000AFFB002840F0D28094F824300121C3F31A
:100AD00042030DF133008DF8333008F091FA18BB62
:100AE000236A002B3FF413AF0CF09AFA0FE713F0D0
:100AF00001073FF40DAF236A5BB193F8202042F069
:100B0000020283F82020236A93F82030D9073FF5AA
:100B1000FEAE0FB0BDE8F04F0CF0C4BA04210020C7
:100B2000480148010000FFF699F8011002464046CE
:100B30000CF05CFB5849B4F8689031230025A360A1
:100B4000A0FB010152A3D3E90023C4E90555257098
:100B50006560E560FFF7D4FA206109F061FB0646A5
:100B6000B9F1000F08D198F8005005F00F05A5F174
:100B70000105B5FA85F56D0994F82400236965F33C
:100B8000000010F0010584F8240036D00020434A0C
:100B9000DFF80C91049302250DF1340801930592BE
:100BA0000321CDE90200069433460090CDF8208061
:100BB000CDF81C902A460D9509F066FA41460BF0D7
:100BC000ADFC00288CD1374A05924AF2D832009207
:100BD000CDE90300CDE90100CDF81C90CDF82080CF
:100BE00006943346012203210D9509F04DFA2EE0BB
:100BF000002738460FB0BDE8F08F2B4A2B480493EE
:100C000003F24713A9FB0001069402951360912398
:100C100003FB0911224B0793204B05934FF6FF73FB
:100C200009924FF0020903930DF1340818A3D3E998
:100C30000023CDF83490CDF82080FFF761FA3346D9
:100C4000CDE900504A462846032109F0C7F941463C
:100C50000BF064FC00287FF443AF94F86A3043F053
:100C6000010384F86A3053E6122751E60CF0D8F9F4
:100C700003274DE605F16C00686768E6072747E63D
:100C800058460BF0CBFB50460BF0BCFB07273FE66A
:100C90008D49FD1A0700000000CA9A3B5DD2000092
:100CA00049BB0000C5CD000070210020002AE78468
:100CB00070B590F824308AB0C3F342030D46044661
:100CC00001210DF1230016468DF8233008F098F924
:100CD0007178024628460CF089FA1F491CA3D3E913
:100CE0000023A0FB0101FFF70BFA23699842054698
:100CF00021D21B1A00220192184A02930221184B9A
:100D00000991A21ACA40A3FB0232D20800230A4466
:100D100009AE14490591CDE903330321D2B20696F9
:100D20000093184609F022FA31460BF0F7FB48B958
:100D300025610AB070BD02D9C21A0023DBE700208A
:100D40000AB070BD0C200AB070BD00BFAFF30080C8
:100D50008D49FD1A0700000000CA9A3B04210020BB
:100D6000F712DA4B49BB000038B5194C9DF810E07A
:100D700094F830C01CF0010522D163F3420C40010D
:100D800094F8203021854FEACE0E0EF0180E00F0B8
:100D9000200040EA0E0023F0380303430D4884F896
:100DA0002030A2FB0001912303FB021106A3D3E92B
:100DB000002384F830C0FFF7A3F9E062284638BD6D
:100DC0000C25284638BD00BF8D49FD1A07000000DC
:100DD00094210020002AE7842DE9F043044600F125
:100DE000210190F8300094F82030C0F3400060F307
:100DF00086138DB084F8203009F04CFA94F8202046
:100E0000238D3948E46102F079020025A3FB00013B
:100E100084F820209122C4E90555257002FB0311B6
:100E20002FA3D3E90023FFF76BF93123C4E9015362
:100E3000E36AE5600933A0F13102934232BF2361D6
:100E40002261E562294D064609F0EAF9284B06942D
:100E50000DF12C08651BCDF82080A3FB053502237E
:100E60000B93214A238D4FF000090746CDF80C90D3
:100E7000A3FB0202912101FB0321236904931D4B73
:100E800007931D4B059316A3D3E90023FFF738F909
:100E9000104619464FF47A720023FFF731F92D09F5
:100EA0000435EDB2CDE9016003213B462A46CDF879
:100EB0000090484609F0E8F841460BF02FFB40B996
:100EC00094F8303043F0010384F830300DB0BDE8C1
:100ED000F0830C200DB0BDE8F08300BFAFF30080BD
:100EE0008D49FD1A07000000002AE78494210020A4
:100EF0004FECC44E49BB000089D700000000000041
:100F00002DE9F04FC38D468E1E4490F80E31B6B2D7
:100F1000314413F007038BB004461FFA81F940F007
:100F20008B81B0F8E870A9EB07011FFA81F9090479
:100F300000F1F681904690F93920002AC0F24581EF
:100F400094F8E43084F8E53094F8842194F88531FD
:100F500094F80C1184F80D11934206D094F8863160
:100F600003F00F03062B00F03182A54BD4F8085193
:100F70001A68944204BF00221A60002D00F02D81EF
:100F80002868002800F02981B4F81031B4F82AC08C
:100F90004268C4F808216345B4F81221B4F814116A
:100FA00004D1B4F82CC0944500F01682B4F828C0DF
:100FB000EB8319232B710023A5F806C02A846984CA
:100FC0002B7729460BF030FA0BF038FAA368002B88
:100FD000C0F2EF80608DB4F8105110FB09F080B2C0
:100FE000B0FBF5F115FB01F39BB298421FFA81FAB1
:100FF00080F0CD801B1A834940F2E24003FB00F0F1
:10100000A0FB01017CA3D3E90023FFF779F820F0CE
:101010007F408044E38D1F4494F93930BE1B564411
:1010200040F2E247002BE68507FB05F6C0F27D8122
:10103000754A7649764840F6275318F0AAFA404098
:1010400080F311884FF0030002DF0027B346714A96
:10105000B4F814317049B4F81201A0853244B2FBDF
:10106000F6F2A4F8C62042F2107202FB0363314488
:10107000013BB1FBF6F1B3FBF6F6B4F81031638532
:101080008AB2831D9A42A4F8C260A4F8CE2004DD7F
:10109000C0F57F43FA331A4492B294F80E31A4F8A3
:1010A000CA201B0744BF0023A4F8C430022101203A
:1010B00014F074FB002202218146012007F070FE2B
:1010C00056494FF4F072204607F0FAFD00F1050A88
:1010D0005FFA8AFA524B009452460121002009F02F
:1010E0005DF830F002030CD0474A4E49484840F6BC
:1010F000565318F04EFA404080F311884FF0030029
:1011000002DF404EABFB066B3BA3D3E90023304626
:101110005946FEF7F5FF089420F07F4506944248B3
:1011200023690493A5FB0001072303FB05113F4B33
:1011300007933F4B0593301A4FF6FE736BEB01019B
:1011400003934FF47A720023FEF7DAFF4346CDE9AA
:101150000150009752460121002008F095FF30F021
:1011600002030CD0284A2F4929484FF4576318F03E
:1011700010FA404080F311884FF0030002DFB9F10C
:10118000000F40F01D8100200BB0BDE8F08F05FB83
:10119000110140F2E2431B4889B203FB01F1A1FBBC
:1011A000000115A3D3E90023FEF7AAFFA8EB00086E
:1011B00030E7E168626823F0004391422CBF884425
:1011C0009044A360A8EB030804E790F8D920002A14
:1011D0003FF4B6AE80F8D930B6E60B4A15490C4854
:1011E00040F6A14318F0D5F9404080F311884FF044
:1011F000030002DF2868C7E68D49FD1A07000000DA
:10120000DC21002000CA9A3B4001020054FC01008E
:10121000F4FB0100FF5962027FC3C901B012002034
:10122000B5DD0000200202008D49FD1A5DDD0000E1
:10123000C92301000C02020001200BF005F906464B
:10124000002800F0EC80844807F004FD05460028E3
:1012500000F0E580814B1A68002A00F0D8800BF07E
:1012600013F92B793268D4F80811516043F0030365
:10127000C4F8086100202B710C236B71E87194F89D
:101280001C312B72764AD4F81831A18DA2FB0323AE
:101290009B0AA5F80930B4F81031A5F80B30B4F862
:1012A000123194F80E21A5F80D300631B4F814313E
:1012B000A5F80F304944D4F8C43189B260F3020272
:1012C000A4F8E81084F80E21A5F81110C3B194F821
:1012D0006621960714D494F8BF21D00710D4D4F80F
:1012E000D0219342D4F8C82100F09C806AB91A79C1
:1012F00002F00302032A00F0A280C4F8C83106E01D
:10130000D4F8C821002A00F08480D4F8CC311A68BF
:101310002A601D602B68C4F8CC510BB9C4F8D451B5
:101320006FF076000BB0BDE8F08F226CA36C02FB6F
:101330001933A36411F0C6FF054694F8D800C0F332
:10134000C20011F0C1FF054406FB05F5454B94F8BA
:101350001C2105F5742505F23F25A3FB0535AD0CD1
:1013600007FB02F2A36C226505FB0AF07208034436
:10137000963A934228BF13462564A6EB050B3A4DD7
:10138000C4E911230023C4F8E030A0FB050130A319
:10139000D3E90023FEF7B4FE3149A8EB0008D4F8E6
:1013A0001801A1FB0030800A07FB00F028A3D3E955
:1013B0000023A0FB0501FEF7A3FE20F07F4746E6D1
:1013C00001220221104607F0EBFCDCE6002384F842
:1013D0008521A4F8C830C8E540F2E24C0CFB03FEBE
:1013E00042F2107C0CFB01EC0CF1FF3CBCFBFEFC60
:1013F000B4F8C2E01FFA8CFCE6457FF4D7AD0123B8
:101400002B7129460BF010F80BF018F8DEE51C6084
:1014100025E72B60C4E97155C4F8CC517DE76FF026
:101420006800B1E61968C4F8D011002A7FF46DAFE6
:101430001A682A601D602B68C4E972556DE7DA7975
:10144000032AF5D00A2A7FF458AFF1E7AFF3008002
:101450008D49FD1A0700000094220020DC210020A5
:101460005917B7D183DE1B4300CA9A3B0000000026
:101470002DE9F04F0B6890F81C801B6895B016465C
:101480001546044606228A4600F11E0112A80B9357
:1014900056F8087B19F0DDF912A9062210A819F0F8
:1014A000D8F92146304651F82EBB032205F1040934
:1014B00019F0CFF905F11806042204F12A01484673
:1014C00019F0C7F9052204F13A01304619F0C1F9C3
:1014D0003046052107F094FD6B7F94F83F2000F023
:1014E0003F0060F305036B77C2F30403AB77A68E6E
:1014F000EE810128C8F3801808D902F01F031B33BE
:1015000003F01F030B2B01D8B6B2CEB90B9BE668D4
:1015100000225A6195F82030012762F3000385F814
:1015200020305846214627710AF07EFF3068377117
:1015300031460AF079FF0AF081FF15B0BDE8F08F5F
:10154000DAF800300021596094F8371094F83630FA
:1015500043EA01232B8297F8D830520962F3C5037E
:10156000628E0D9287F8D83040F2E24202FB06F616
:1015700011F0A8FE0C9097F8D800C0F3C20011F04B
:10158000A3FE0C9BB049034406FB03F303F574234D
:1015900003F23F23A1FB03239B0C6B6294F83130D1
:1015A000298A40F2E24203FB02F27308963BAA63E7
:1015B000AB62238FA54AADF83A3018463244A44BAB
:1015C000B2FBF6F2A7F8C62082B242F2107000FB1E
:1015D00002623344013A881DB2FBF6F2B3FBF6F324
:1015E000A7F8C2209AB28242A7F8CE2004DDC1F546
:1015F0007F41FA310A4492B2A7F8CA204946042230
:1016000007F1DC0019F025F9234613F81C2FC2F36B
:101610004011DA070F910C9100F1F1804FF48073C3
:1016200084F81E8010A9A383062204F11F0019F07C
:1016300010F997F8D830EA89E2842A8A2285C3F320
:10164000C203BDF83A2084F82C30628538460CF08D
:101650008BFF2146A881E080DAF8044058460AF062
:10166000E3FEAB89E3801C2323710C9BD4F800803C
:10167000002B40F0B9809DF83C302377214640464E
:101680000AF0D2FE0AF0DAFE95F84500B5F84040BF
:10169000B5F84280012100F0070011F019FCA044C8
:1016A00008F5E178834608EB00016A484FF000092D
:1016B0003123BB60A1FB000161A3D3E90023C7F87C
:1016C0000490C7F80C90FEF71BFD6B6A0D9ADAF8D0
:1016D0000C4020F07F40F61A40F2E24303FB024444
:1016E00002214A463861012007F05AFB0B9D28462B
:1016F0000BF074FF821C584B0095D2B24846012172
:1017000008F04CFD04F2B2440128A4EB0B0400F0F5
:1017100083800B9B93F82430DB075DD438460CF0B4
:1017200023FFDFF83091A6FB098645A3D3E9002308
:10173000054631464046FEF7E3FCDAF808300697E6
:10174000A3F13A0A454B0793454B05934FF4E773D2
:1017500008933B6920F07F4242484FF0000BA2FB08
:101760000001CDE903B30723B8EB000003FB02112E
:1017700066EB0101174600234FF47A72FEF7C0FCB6
:101780002FA3D3E90023CDE90170A4FB0901FEF7E3
:10179000B7FC053520F07F40EDB2009053462A4655
:1017A0000121584608F070FC30F002030CD02E4A9C
:1017B0002E492F4840F2CF1317F0EBFE404080F344
:1017C00011884FF0030002DF01220221104607F0CA
:1017D000E7FA15B0BDE8F08F002301220093184608
:1017E000114608F0DBFC99E76B7F43F040036B7711
:1017F000484610F007FF0123E88323773EE71A4AA3
:101800001C491B48F72317F0C4FE404080F31188A1
:101810004FF0030002DF01E70AF0BEFE0B9B83429C
:101820003FF477AF104A1449114840F2992317F05A
:10183000B0FE404080F311884FF0030002DF68E7FC
:101840008D49FD1A0700000083DE1B43FF59620229
:101850007FC3C90100CA9A3B8D2301005D230100AB
:10186000C92301008D49FD1A1C0302002002020059
:10187000F4FB010008FD0100780302008B1E5942B1
:101880005941014B19707047EC28002038B50C46BF
:10189000BDF81000E5681C46C3180A2B114608DC89
:1018A0002246284418F0D5FF034B01221A70204627
:1018B00038BD6FF00604FAE7EA280020014817F067
:1018C00052BB00BF10090200014817F04CBB00BF1B
:1018D0003209020011B1034817F045BB024817F066
:1018E00042BB00BF500902007009020008B503485E
:1018F00017F039FB024B00221A7008BD7B09020069
:10190000EB2800200349044B0448002A08BF19466D
:1019100017F029BB90090200950902009D090200F9
:1019200070B503788AB004460E4607AD032B20D865
:10193000DFE803F002191B1D1149284618F052FF79
:1019400063780493A3780393E37802932379019354
:10195000637900930B4AA37905951E21304617F051
:101960000FFB0AB070BD0849E7E70849E5E70849F9
:10197000E3E7084A0A21284617F002FBE0E700BF28
:10198000AC090200D5090200B3090200BA0902003D
:10199000C4090200CE09020000B589B019F063FF46
:1019A0006946FFF7BDFF0348694617F0DCFA09B046
:1019B0005DF804FBF809020010B588B00C4619F078
:1019C00052FF6946FFF7ACFF03482246694617F00D
:1019D000CAFA08B010BD00BF0F0A020013B50D4CC3
:1019E00040F2DF7302220DF106012046ADF8063009
:1019F00018F02FFF0523A3701E23E3700C22A371A0
:101A000001232271E3712D2200236271237263721C
:101A100002B010BDE028002010B50C4B1A7886B03B
:101A20008AB100242146182268461C7018F01CFF59
:101A3000074B0193074B029369460A232046ADF8F2
:101A40000C3005F055FE06B010BD00BFEA2800209E
:101A500064F40100E02800202DE9F0413D493E48B2
:101A60008CB017F080FA002002F0F4FA064630B18C
:101A700001463A480CB0BDE8F04117F074BA384D51
:101A8000384817F070FAFFF7A9FF0FCD02AC0FC46A
:101A90002B682360344900963346032202A803F0E2
:101AA00041F80146002850D0304817F05CFA304821
:101AB000304D314E05F0E8FB304803F0DFFF304A8F
:101AC00030480D2105F0F6FC2522044602A92C48D9
:101AD00001F09EFD2C4802AA214617F044FA00218D
:101AE0004FF4004016F0D6FEFFF796FF2B78013337
:101AF000DBB2A02B08BF5A232B70287800F080FDA2
:101B000000F03AFD431E13F0FF0314BF1846642093
:101B100000F038FD3378002BE1D0002CDFD01B4FD4
:101B200038780028DBD11A491A4B8B601A4B4C606D
:101B30004FF00108C1E90337A1F8148005F026FD34
:101B40000028CCD187F80080C9E7144817F00BFAB9
:101B5000ADE700BF250A0200390A02004A0A020066
:101B600080F301006A0A020038F40100810A0200D1
:101B7000F801002049090020EC280020E0010020A5
:101B800070090020A0F40100C90A0200EB2800201F
:101B90005816002005190000ED180000A70A0200E1
:101BA0000B6801330B60014B1B68184700020020D3
:101BB000014B1860704700BF000200201FB50024D1
:101BC00002460B46009403A90248039400F0FAF879
:101BD00004B010BDA11B000030B587B00025CDE9D1
:101BE00003010446009503A90548059500F0EAF8AD
:101BF000DDE904309842B8BF255407B030BD00BFBE
:101C0000418F01002DE9F84FB0F8189019F008083D
:101C1000044693460DD001290CBF49F0100949F044
:101C20002009A0F818908BF31188BFF36F8FBDE8DF
:101C3000F88F09F00709022907D1204617F0ADF9FE
:101C40000028F0D00128238B4ED16769218B002F0B
:101C500015DA256821F00701C4E9008841F0010187
:101C600021830026218B01F0070ACA4502D0A36810
:101C7000002B5AD10DB9002E71D0002356E001F08F
:101C800007035A1F012A1ED821F00701062B2568D9
:101C900089B2C4E900880AD13DB1638B2A46126833
:101CA00001339BB2002AFAD1638341F00201218300
:101CB000204617F072F906460028D3D0238B43F054
:101CC00020032383CDE7042B0CD121F0070189B237
:101CD0002183204617F061F905460028C1D041F064
:101CE000200121830025BCE7032809D1226923F0C4
:101CF0000703166843F00603238300252F46B1E748
:101D0000042806D1226923F00703566843F0040330
:101D1000F2E7052806D1226923F00703966843F00D
:101D20000503E9E700252E46E8E7012341F0080115
:101D300021838BF31188BFF36F8FFBB985BB16B17D
:101D40001F492046B0474FF02003EFF3118B83F378
:101D50001288BFF36F8F238B23F008032383238B19
:101D6000DA0625D523F0100323830121B4F8189057
:101D700009F0070900297FF45EAF54E7A168002944
:101D8000DCD0D1F80090D1F804B03B465246204652
:101D9000D847B9F1000FD1D04946D9F80090F2E701
:101DA00029463B46524620462D6817F012F9C5E7F2
:101DB00013F020011EBF23F0200323830221D5E767
:101DC000FF8F01002DE9F04F91B08B4602909246B3
:101DD0001C4600259AF8000008B9284663E3252828
:101DE0000AF1010707D0029B594698470028C0F224
:101DF0005A83013512E2182200210AA818F034FD96
:101E00009AF80130252B78D0002210469646944649
:101E10001646394617F8013B2B2B00F09D8000F247
:101E20009480202B00F09B80232B00F09B802EB110
:101E30009DF8306046F004068DF83060BCF1000F6C
:101E400005D09DF8306046F008068DF83060BEF190
:101E5000000F05D09DF8306046F010068DF8306018
:101E600028B19DF8300040F020008DF830002AB1F4
:101E70009DF8302042F040028DF830209DF830204F
:101E800002F04400442803D16FF386128DF830200D
:101E90009DF830202A2B42F080028DF830207BD133
:101EA0009DF8312042F001024B1C8DF831201A7848
:101EB0002E2A9DF831200CBF0121002161F341023F
:101EC0008DF8312074D15A782A2A6AD00133002142
:101ED0000A26184610F8012BA2F13007092F40F20C
:101EE0008E809DF830200E91C2F3400040EAD171FF
:101EF00061F341028DF830205AE00AF102078DF8B3
:101F000033309DF83130D90740F1498154F8049BB2
:101F1000B9F1000F07DA9DF8302042F004028DF885
:101F20003020C9F100095A0740F1428154F8048B6E
:101F3000B8F1000F80F241819DF831306FF3410319
:101F40008DF831304FF0FF3837E12D2B0CD0302B8E
:101F50007FF46DAF01225CE74FF0010C59E74FF0C1
:101F6000010E56E7012054E7012652E70CFB02025E
:101F7000303A33461E4616F8010BA0F13007092F00
:101F8000F4D9994293D09DF830100D92D20F62F39C
:101F900041018DF830108AE70B4600224FF00A0C01
:101FA000E8E79DF8312042F004028DF83120023339
:101FB0001F4617F8012B6C2A41D025D8682A2BD050
:101FC0006A2A46D04C2A4CD01F4617F8012B9DF8A0
:101FD00031308DF83320782A00F2D980572A4DD835
:101FE000412A03D0453A022A00F2D1809DF83230CE
:101FF000042262F302038DF8323001239EE006FBD7
:1020000001213039034664E7742A26D07A2ADBD1CD
:102010009DF8313006220DE05A78682A9DF831206B
:1020200006D1012161F3C6028DF831209F1CCCE757
:102030001346022262F3C6038DF83130C5E75A78A1
:102040006C2A9DF8312001D10421EBE713460322CD
:10205000F0E79DF831300522ECE79DF8313007229A
:10206000E8E7BDF8303023F4F04323F0020343F4F3
:10207000804343F00203ADF83030A6E7A2F15801E7
:10208000202900F2848001A050F821F051210000A5
:102090008F2100008F2100008F2100008F21000080
:1020A0008F2100008F2100008F2100008F21000070
:1020B000ED1F00008F2100005121000011210000C0
:1020C000ED1F0000ED1F0000ED1F00008F2100003C
:1020D000112100008F2100008F2100008F210000BE
:1020E0008F210000592100005121000075210000BE
:1020F0008F2100008F210000752100008F2100003A
:10210000512100008F2100008F210000512100008B
:102110009DF83210012003F0780360F30201402B98
:102120008DF8321002BF9DF8301041F001018DF89A
:102130003010632A31D1003B18BF01239DF83020B5
:10214000C2F340010B4363F341028DF83020D8E61F
:102150009DF832100220DEE79DF8322003F078036C
:10216000A3F14000032161F3020243428DF83220C3
:102170004341E3E79DF83220032113F0780F61F328
:1021800002028DF8322014BF01230023D6E79DF808
:10219000303043F001038DF830300023CEE79DF955
:1021A0003020002AB4BFDDF834904FF0FF39BAE692
:1021B0009B077FF5C7AEDDF838809DF8311000230E
:1021C000CDE90D339DF8323003F00703012BC1F345
:1021D000C30135D1CB1E042B22D8DFE803F003095D
:1021E0000921210054F8043BDA17CDE90A3206E050
:1021F000073424F00704F4E80223CDE90A239DF80C
:10220000303013F0030659D002983B4652465946E7
:1022100017F0A9F90028C0F246810544BA46D9E56D
:1022200054F8043B01294FEAE372CDE90A3202D1A6
:102230009DF92830D8E70229E1D1BDF92830D3E74C
:10224000022B29D1CB1E042B13D8DFE803F0030A9D
:102250000A12120022680A920023201D0B930446E2
:10226000CDE7E01D20F00700F0E80223CDE90A23C6
:10227000F5E754F8043B0A9301294FF000030B9350
:1022800005D19DF828300A9300230B93B7E7022964
:10229000B5D1BDF82830F6E7042B09D1E31D23F0B2
:1022A000070303F10804D3E90023CDE90A23A6E7D5
:1022B000032B04BF54F8043B0A93A0E79DF83300B6
:1022C0007828ABD8622822D825283FF48CAD58282E
:1022D000A4D10DF126030093DDE90A0104AB0CAA99
:1022E00017F0FBF88246B8F1000F0DF126000CDB69
:1022F0009DF83020A0EB0A036FF3861298458DF805
:10230000302002D9A8EB03030D9380463EE06338EA
:10231000152883D801A252F820F000BF9D230000A9
:10232000012400001D2200001D2200001D220000CB
:102330001D220000012400001D2200001D220000BB
:102340001D2200001D2200005B2400002924000043
:102350002D2400001D2200001D2200007523000016
:102360001D220000292400001D2200001D22000063
:1023700029240000B8F1000FDDF828A00ADB41464F
:10238000504618F040FA0AEB00080026BAF1000F98
:102390000CD143E7504618F02FFAF4E70A9B8DF86A
:1023A000103000260DF1100A0DF11108A8EB0A03F8
:1023B00006B101339DF83220D00668D502335206AB
:1023C0000D9948BF0E9A0B4448BF9B18B9F1000FF6
:1023D00076DD9DF83020A9EB0309C2F38003039357
:1023E00053076DD4500661D546B1029B594630461D
:1023F0009847002857DB039B01351E46302356E0E3
:102400001E070FD413F0100618BF2026DDE90A239B
:10241000002BBFF65EAF524263EB4303CDE90A23C4
:102420002D2656E72B26F1E7002652E70A9840B3FF
:102430000DF1260300930CAA04AB002117F04DF810
:10244000BDF8323003F0EF0343F4F04343F01003E0
:102450008246ADF83230002645E70A9B07293FF651
:10246000DDAEDFE801F00C04060C08080C0C1D7052
:10247000D4E61D80D2E6EA17C3E90052CEE61D601D
:10248000CCE6DFF8C8A006460AF105088EE711077A
:1024900048BF013393E7184603935946029B984778
:1024A0000028039B04DA11B0BDE8F08F20234D44CF
:1024B0004A46002AA5EB090109F1FF39EBDC0D467C
:1024C00036B1029B5946304698470028EBDB013570
:1024D0009DF83230D90601D41A0706D5029B594619
:1024E000302098470028DEDB01359DF83230DB06CE
:1024F00007D59DF83300029B594698470028D2DB48
:1025000001350D9E2E44731B002B16DC02984346AA
:102510005246594617F027F80028C4DB0544A94461
:10252000A9EB0503002B7FF779AE029B59462020CB
:1025300098470028B7DB0135F2E7029B5946302067
:1025400098470028AFDB0135DDE700BF1C0B020018
:1025500010B5084C86B024788DF8174001240294F9
:102560000DF117040194BDF8204000941AF099FD74
:1025700006B010BD070A0020014B1878704700BF55
:10258000070A002000B589B064288DF8070019D823
:102590000E4B18221870002102A818F065F90C4B98
:1025A00003930DF10703049302A901230020ADF862
:1025B000143005F09DF810F1800F08BF002009B01D
:1025C0005DF804FB6FF01500F9E700BF070A002073
:1025D000B8F50100024B01221A700020704700BFBD
:1025E000EF2800201FB501240294044C0194BDF88B
:1025F000184000941AF055FD04B010BDEF280020DB
:1026000010B50D4C86B00623607018220021684674
:10261000237018F029F9094B6946CDE901340020EF
:102620000223ADF80C3005F063F810F1800F08BFFD
:10263000002006B010BD00BFED28002008F6010004
:102640002DE9F84305464FF02003EFF3118683F39D
:102650001288BFF36F8F0E4B1C689CB10D4FDFF8D3
:1026600038804FF00C09D4E90132002D08BF134621
:102670002BB198F8142009FB02F2B85C9847246843
:10268000002CF0D186F31188BFF36F8FBDE8F8837B
:1026900074160020881600207C28002038B51A4BBC
:1026A0001C7DBFF35B8F04F01F0301229A40174B80
:1026B0006109D04303EB810353E8001F01EA0005E1
:1026C00043E8005CBCF1000FF6D1BFF35B8F114211
:1026D00013D00F4B0F4D8BB10C236343EA18E85C0A
:1026E000517818F0D9F80020FFF7AAFF0C235C43BB
:1026F0002A1900232B51C2E9013338BD83F3118815
:10270000BFF36F8FEFE700BF7C28002094160020F6
:1027100099A80100881600202DE9F041334B0746A7
:102720001D7D4FF02003EFF3118883F31288BFF370
:102730006F8F0C242E4B2F4E6C431A19195D0029F4
:1027400049D007CA06EB040C8CE8070000221A5592
:1027500088F31188BFF36F8F0C236B43F218F05C82
:10276000B8B37B1C0FD0D2F808C02348234A4FF4DB
:10277000004400210023ECFB0401FDF7C1FC012112
:10278000381A1CF0C4FA15F04DFE0120FFF758FF6F
:10279000BFF35B8F05F01F0201219140184A6B09BE
:1027A00002EB830353E8002F0A4343E8002000288C
:1027B000F8D1BFF35B8F134B33B10C206843331850
:1027C000305C597818F05CF8FFF768FF15F0B2FF3D
:1027D0000120BDE8F0810146284600F015F80028E8
:1027E000B6D007C8344484E80700B1E77C2800204D
:1027F0007C160020881600203F420F0040420F0048
:102800009416002081A801002DE9F04F85B00E46F6
:1028100003A900F041F8039B01931C4BDFF8708083
:10282000D3F800A0441E24B24FF400474FF0000B31
:10283000631C04D10025284605B0BDE8F08F019B3C
:10284000144A04EB440503EB8505C4466868594601
:10285000E0FB07C100236046FDF752FC8146A868F3
:102860000C4AC4465946E0FB07C100236046FDF709
:1028700047FCBAF1FF3F01D0824504D9721CDAD07F
:102880004844B042D7D9013C24B2D1E76C020020C1
:102890003F420F0040420F0008B9024B0B6000207E
:1028A000704700BF94F60100014B1868704700BFE5
:1028B00070020020F0B5082289B017F02AF8CB6A20
:1028C00003930B6B04934B6B05938B6B0693CB6B52
:1028D000079313466A460C460646002711461046E3
:1028E000CDE90177009716F02AFF314605463046BC
:1028F00016F025FF216B0391616B0491A16B05918B
:10290000E16B0544CDE906171046114616F017FF96
:1029100031460544304616F012FF0544206A009007
:10292000606A0190A06A0290A06B0690E06B07902D
:102930003046CDE90477039716F001FF0544606A3D
:102940000090A06AD4F838C00190E06A0290CDF8F7
:1029500010C0606BD4F83CC00390CDE905C0206A7C
:102960000790304616F0EBFE0544E06A0090206BBD
:102970000190606B0290206A0690A06A0790304632
:10298000CDE90477039716F0F7FF236B0093636B91
:102990000193A36B0293E36B0393636A0693E36A69
:1029A00007932D1A08233046CDE9047716F0E4FF8B
:1029B000636B0093A36B0193E36B0293236A03930E
:1029C000636A0493A36ACDE90537236B07932D1A35
:1029D0000823304616F0D0FFA36B0093E36BCDE9DC
:1029E0000137636A0393A36A0493E36ACDE9053769
:1029F000636B07932D1A0823304616F0BDFF2D1A7E
:102A000010D40D4C35B908223146204616F08DFF02
:102A100001280FD0082322463146304616F0ACFF7D
:102A20002D1AEFE7044A08233146304616F087FE98
:102A30002D18F8D409B0F0BD98F601000449431EE2
:102A40000F3013F8012F8A5C1A708342F9D1704756
:102A5000220B0200F0B5264E07460C460FCE8DB075
:102A600001AD0FC50FCE0FC596E8070085E807003A
:102A70003846002F38D0002C38D0381F2146024667
:102A800010344B780D781B0443EA0563CD782B4353
:102A90008D78043143EA05238C4242F8043FF0D19B
:102AA000144C04218A07036916D1C3F30742A55CBD
:102AB0001A0EA25C42EA0562C3F30725DBB2655D2C
:102AC000E35C42EA054242EA03220CAD21F0030333
:102AD0002B4453F82C3C534050F8042F0131534001
:102AE0002C290361DED101200DB0F0BD2046FBE7AB
:102AF00094F30100220B0200014910220A60704782
:102B000010ED00E072B6404080F31188BFF36F8F84
:102B1000BFF34F8F30BF62B6BFF36F8F704700BFF8
:102B200072B6494081F3118820BF80F3118862B6E4
:102B3000704700BF43B2002B08DB012200F01F00EA
:102B400002FA00F05B09024A42F82300704700BF16
:102B500000E100E043B2002B0DDB01225B0900F035
:102B60001F0002FA00F02033034A42F82300BFF3AB
:102B70004F8FBFF36F8F704700E100E0054B4209B4
:102B800000F01F0053F82220012303FA00F0104048
:102B9000704700BF00E100E043B2002BA8BF03F183
:102BA000604301F10101B8BF064B4FEA4111ACBFD0
:102BB00003F5614300F00F00C9B2B4BF195483F8A4
:102BC0000013704714ED00E008B572B6044B9A6923
:102BD0001AB100229A611BF0A8FD62B608BD00BFC1
:102BE0007C28002030BFFFF7FDBF00BF0F4A08B5AB
:102BF0000F4B22F07F029A60BFF34F8FBFF36F8FAE
:102C0000D3F8882022F47002C3F88820EFF31483ED
:102C100023F0040383F31488BFF36F8F14F060FF75
:102C200015F0CAFE00F0D0F914F09EFF000000007D
:102C300000ED00E0094A0A4993680968D967094923
:102C400098674B6843F080534B60002383F31188EF
:102C5000BFF36F8F9368D86F704700BF7C28002048
:102C60000C09020000ED00E012498A684FF03000C4
:102C70001044EFF3098C80E8F01F202080F31288C5
:102C8000BFF36F8F0C4F4FF00066CA698A603E60D9
:102C9000906F0023936780F3118804B5104600F00D
:102CA000D9F9BDE8044002F1300090E8F01F8CF340
:102CB000098870477C28002004ED00E01EF0040F16
:102CC0000CBFEFF30880EFF30980816911F8021C53
:102CD0000229FFD001B517F076FD01BD42F8203C76
:102CE000009B42F81C3C0A49019B42F8183C029B9D
:102CF00042F8143C21F001014FF0807342F8043C8B
:102D000042F8081C0023203A02658367704700BF21
:102D10003B910100094A0346906870B113F1160F08
:102D2000806E05D0A0F140029A4205D8834203D2BA
:102D3000814228BF00207047002070477C28002077
:102D400008B5094B98600D46144600F083F92046FB
:102D500085F30988002163B681F31188BFF36F8F73
:102D60000022002316F0E9F97C28002001B572B694
:102D70000B4A906900281EBF002191611BF0D5FC11
:102D800062B6EFF30580A0F110004FEAC0000549DC
:102D9000014409C99847BDE80140034908470000BC
:102DA0007C2800206CF10100AD2D0000044B9968D7
:102DB000D869884203D003494FF080520A607047B7
:102DC0007C28002004ED00E038B51C4B14469A6ABC
:102DD0009A6A9A6A0546900720D5586B9A6A120635
:102DE0001CD519B19A6A22F080029A629A6A9A6A8C
:102DF0009A6AD20615D49B6A9B0712D400200F4B07
:102E00009A6A920642BF5A6A22F400525A629A6A39
:102E100042F0FF029A620023237038BD6FF0150064
:102E2000E4E7064B5B681905E8D52946FFF772FF12
:102E30000028E3D080F309880220E0E700ED00E0FD
:102E40000D4B9A6A9A6A9A6A920508D59A6B9A6AA1
:102E5000120404D518B19A6A22F400429A62064B11
:102E60009A6A9A6AD20558BF9A6A9A6A002042F40E
:102E70007F429A620870704700ED00E070B5484BE1
:102E80005B688AB00D46C3F30803002686F31188F9
:102E9000BFF36F8F02F07F41B1F17F4F11D102F08C
:102EA0000C0108290DD0110701D405460126002286
:102EB000033B8DF80720032B6BD8DFE803F00455A4
:102EC000595D3546F3E7364BDC6A14F0020460D1F5
:102ED000DA6A002A15DBDA6A520012D5AA6932F8DA
:102EE000021C4DF6027291420AD093F828200AB3D0
:102EF0000DF1070201212846FFF766FF044600E0B6
:102F00002C689DF807309BB92022294602A817F0AB
:102F1000A0FC099B002E3ED0C3F3080222B96FEA41
:102F200053236FEA4323099302A9204617F049FC73
:102F30000AB070BD93F829202AB10DF107010120D4
:102F4000FFF77EFFDAE75A8D92B2002AD9D09A6A4B
:102F50009A6A9A6A9A6A9A6A9A6A9A6A6FEA0242BC
:102F60006FEA12429A62CCE70DF107020021C2E734
:102F70000DF107010020E3E7094B9A6A9A6A9A6A01
:102F80009A6A9A6A9A6A9A6A6FEA02426FEA1242E7
:102F90009A620024B5E723F4FF7323F00103C2E72C
:102FA00000ED00E0024A536943F01003536170479B
:102FB00000ED00E0EFF30880EFF3098101B5724600
:102FC000FFF75CFF01BD00BF044800232021C218A9
:102FD0000133302B82F80013F9D1704700E100E093
:102FE0001CF036F8202080F3118808484FF4046163
:102FF000401880F30988EFF314800221084380F31E
:103000001488BFF36F8FFFF7F1FD0000C04100206F
:10301000084B9B6883420BD1EFF3058343B1064B0A
:103020005A6842F080525A605A6A22F400425A6248
:1030300015F050BC7C28002000ED00E0024B034A54
:103040000348012100F06EB80000042000000020B9
:1030500044F70100826E054B403A1A60044A402151
:10306000C3E901121846012100F066B89816002045
:1030700000000B15F0B51F4F00268E4201DB1046F5
:10308000F0BD44689CB353B104F1FF3C14EA0C0F4B
:1030900018D11F2C16D905681CEA050F12D1202C57
:1030A0000568D0F808C0D2B20FD9B4F1004F0ED8DD
:1030B000013CB4FA84F4C4F11F046400072A4CEA0A
:1030C000040406D96FF01502D9E70824F6E73E2478
:1030D000F4E725F01F05154345F0100544F0010401
:1030E000C7F89820C7F89C500132C7F8A0400136B5
:1030F0000C30C2E700ED00E0044B0522C3F8942039
:10310000BFF34F8FBFF36F8F704700BF00ED00E03C
:10311000BFF35F8F024B0022C3F89420704700BFBB
:1031200000ED00E010B5034C01232278FFF7A2FF69
:10313000207010BDF028002008B5094A002312783D
:10314000FFF798FF10F1160F02D0064A072800DD9E
:1031500008BDC2F89800C2F8A0300130F6E700BF01
:10316000F028002000ED00E014490868082810B598
:1031700021D8FFF7CDFF124C49680022904201F19F
:103180000C0105D10F4B1870FFF7B6FF002010BDE2
:10319000C4F8982051F80C3C23F01F03134343F06C
:1031A0001003C4F89C3051F8043C43F00103C4F808
:1031B000A0300132E2E74FF0FF30E8E750F70100BE
:1031C00000ED00E0F0280020014B1860704700BFC0
:1031D0007402002010B54FF02003EFF3118083F349
:1031E0001288BFF36F8F114A0123C2F840354FF0A8
:1031F00080424FF08051C2F87835D1F83041082C28
:1032000008D1D1F83411052904D8094C615C09B101
:10321000C2F838364FF080430122C3F8802580F38E
:103220001188BFF36F8F002010BD00BF00E0014088
:10323000310C020020B1034B800143F00103184719
:10324000704700BF30F4010070B5214CBFF35B8FB5
:103250002368BFF35B8FDA0706460D4601D50C20C5
:1032600070BD012931D8BFF35B8F54E8003F43F0B4
:10327000020244E800210029F7D1BFF35B8F9B07CE
:10328000EDD41448314617F057FB134806F12001DE
:1032900017F052FBBFF35B8F75B154E8003F43F06A
:1032A000040344E80032002AF7D1BFF35B8F0B48D8
:1032B00014F030FE0020D3E754E8003F23F004036D
:1032C00044E80032002AF0D0F6E71220C8E700BF39
:1032D000A41600201129002031290020780A00209E
:1032E0002DE9F843604FDFF884813E464FF0FF320E
:1032F0004FF0FF33404614F033FEBFF35B8F3C6862
:10330000BFF35B8F14F0010455D0DFF86491594C82
:10331000594D5A484A46214616F065F900283ED0D4
:1033200020222946204617F083FA0028F1D04FF0DA
:1033300000094FF0FF324FF0FF33012000F0C6F9D3
:1033400000F108050221044628461AF0DEFD3E235E
:10335000037042234370012128461AF0D6FD08234A
:103360000370412128461AF0D0FD054600F8019B64
:10337000B9F1000F16D04022002117F075FABFF303
:103380005B8F56E8003F23F0010346E80032002A35
:10339000F7D1BFF35B8F204600F098FDA6E74FF012
:1033A0001F09C6E7354917F0C7FA203105F121009A
:1033B00017F0C2FAE3E7BFF35B8F3B68BFF35B8FA5
:1033C0009B0793D52A492D4816F0C6FF002811DB2C
:1033D000BFF35B8F3B6827492748BFF35B8F13F030
:1033E000040F01F12002224B18BF0146104616F0CF
:1033F00049F904464FF0FF324FF0FF33012000F04F
:1034000065F900F108090221054648461AF07DFDDC
:103410003E23037022234370012148461AF075FDB4
:1034200009230370212148461AF06FFD034601303D
:103430009CB91F221A70FF21202217F015FABFF342
:103440005B8F56E8003F23F0020346E80032002A73
:10345000F7D1BFF35B8F28469EE7002207491A7019
:1034600017F06AFAEBE700BFA4160020780A0020E4
:1034700070F70100F12800203E0C02001129002005
:1034800070B5067D044676B983681D8842F226022F
:10349000954245D00FD842F2010295424FD042F2F8
:1034A00025039D4213D02A4BD3F8543120465B6943
:1034B000BDE87040184742F25E039D42F3D10321FC
:1034C00008301AF057FDA06890F840102EE0032154
:1034D00008301AF04FFD204612F01CFCBFF35B8F42
:1034E0001C4B1A68BFF35B8F920707D50C26314639
:1034F00042F2250017F0FCF9002070BDBFF35B8F8E
:1035000053E8002F42F0010143E800100028F7D1F2
:10351000BFF35B8FD307E9D40F4814F0FBFCE6E759
:10352000032108301AF026FDA0683146FFF78CFE13
:103530000646204612F0EEFB31462846DAE7DA78F6
:1035400002F07F02DA701A7922F001021A71AAE7FA
:1035500000000020A4160020780A002010B588B0D2
:103560000C4C0D4900220023CDE9062300230A223A
:10357000CDE90323CDE9013300934FF48F62074B6C
:10358000204614F0EFFB0649204608B0BDE8104085
:103590001BF0C6B8280C0020C02D0020E13200002E
:1035A000370C020030B4034608461A78012A13D0BB
:1035B000022A26D072B9154A02F1100452F8045BAF
:1035C00041F8045BA242F9D15B8812780A70437318
:1035D0001B0A837330BC70470C4A02F1100452F886
:1035E000045B41F8045BA242F9D15B6812780A706F
:1035F000C3F3072243731B0CC3731B0A8273037448
:10360000E8E730BC1122194617F023B9800C0200FC
:10361000F0B50578012D8BB004460E4617460CD048
:10362000022D0DD0002D44D14388254A394630461D
:103630000BB0BDE8F04015F0A3BC4368214AF5E7A4
:103640002A46411C06A817F004F9E11C042208A828
:1036500017F0FFF82A46E11D0DF11A0017F0F9F8EE
:103660002A4604F1090107A817F0F3F82A4604F1E5
:103670000B010DF11E0017F0ECF804F10D0104220E
:1036800009A817F0E6F8BDF818300493089B0393D7
:10369000BDF81A300293BDF81C300193BDF81E30FE
:1036A0000093094A099B3946304615F069FC0BB076
:1036B000F0BD002130460BB0BDE8F04017F0D4B8A3
:1036C0007B0C02005E0C0200630C020038B505465C
:1036D00005481AF0B8FB044620B1002108301AF062
:1036E000D1FB2575204638BDCC0B00200B460B497D
:1036F0000246D1F8380110B520B9BDE810400120CC
:10370000FFF7E4BF1AF0CFFB01230021037581818D
:10371000044608301AF0B6FB204610BD0000002019
:1037200070B504460F2C0D461046194605D80D2CD1
:1037300012D9BDE87040FFF7D9BF132C0CD10B484C
:103740001AF081FB044628B1002108301AF09AFBD8
:1037500001232375204670BD02460B460DB1044877
:10376000EEE7BDE870400120FFF7B0BFF80B002086
:10377000480B002038B583681A7872B9B3F8014055
:10378000204601F041FE054640B9084B1A8822B98F
:103790006FEA04506FEA1050188038BD012101F023
:1037A0003BFE2846BDE8384017F09ABFBC280020F1
:1037B00010B50121044608301AF0E4FB2146034A03
:1037C0000078BDE810400B2317F03DB950F8010018
:1037D00013B50C4C0146052294F8670001F0F6FF82
:1037E00070B9094B18689A8800909B79ADF804204D
:1037F00094F867008DF806300422694601F0E6FF70
:1038000002B010BD00000020D6F30100F8B5074655
:1038100090790E46144612F0B9F9284B83424BD1E9
:10382000204612F0BBF9264D0C2303FB00504388C1
:10383000BB4241D1234FD7F8380120B112F06AFAC8
:103840000023C7F83831204612F0A8F90C2707FBEF
:10385000005043689BB196B9204612F09FF907FBD0
:10386000005001214268D2E90003127A03F01F07D9
:10387000B9405B09D2B100EB830017F03DF9204657
:1038800012F08CF90C2707FB00508368A3B1204687
:1038900012F084F978432E54204612F07FF907FB8A
:1038A0000055A868BDE8F84014F034BBC94300EBEC
:1038B000830017F096F9E2E7F8BD00BFA00B0020E7
:1038C000A81600200000002038B504210446083066
:1038D0001AF058FB4578017840882246FFF796FF9A
:1038E00025B10348BDE8384014F014BB38BD00BF13
:1038F0002001002038B50321044608301AF042FBAD
:10390000A36805781978B0F801002246FFF77EFF1A
:1039100025B10348BDE8384014F0FCBA38BD00BFFB
:10392000200100202DE9F84FDFF80881DFF808A119
:10393000D8F80C3041486FF35233C8F80C3001F01E
:103940002DFD451C3B484FF0FF324FF0FF33294619
:1039500015F084F960B13A493A4840F6AB13524643
:1039600015F017FE404080F311884FF0030002DF8E
:10397000DFF8D4902F4EA9F59E77A9F11C0B15B94D
:1039800014F000FFD4E7F368C3F34533042B47D1A9
:10399000337B002B47D10022002348461AF058FA07
:1039A000044660B92949274840F64213524615F0AB
:1039B000F0FD404080F311884FF0030002DF4FF02C
:1039C000FF324FF0FF33584614F0CAFAD7F83801E7
:1039D00020B112F09FF90023C7F8383120461AF0C1
:1039E00062FAC7F838012046FFF74AFDC0B118480F
:1039F00014F090FA204612F0D1F8164B0C2202FB7C
:103A000000301F2140882246FFF700FFD7F8380119
:103A100012F080F900232046C7F8383112F07AF905
:103A20001436013DABE7012BFAD13069383801F08B
:103A3000C5FFF5E778020020910C02008C020020FF
:103A4000C50C0200CE0C02003C010020EB0C020071
:103A500020010020A816002010B5C1E900239DF820
:103A600008300B720C4612F099F8034B0C2202FB43
:103A700000335C6010BD00BFA81600202DE9F047A0
:103A80004FF0FF324FF0FF3306461748174D0F46F1
:103A90001AF0D9F9044600F1080A00214FF0000895
:103AA00050461AF0EFF984F81480204612F076F8A8
:103AB0004FF00C0909FB00504680204612F06EF8CA
:103AC00009FB0050C0F80880204612F067F809FB97
:103AD00000550321C5F8048050461AF016FA877085
:103AE00006802046BDE8F087A00B0020A816002025
:103AF00038B505460C4619B9FFF7C0FF044698B122
:103B000040F635439D4209D12046FFF7B9FC0546F2
:103B100010B1204612F0FEF8284638BD0448214670
:103B20001AF0B4F90025F7E76FF06805F4E700BF75
:103B30003C010020F0B5154687B00C4621B9FFF7CF
:103B40009DFF0446002848D00122002168461AF053
:103B5000C0FE204612F022F8214F0C2303FB007018
:103B6000C0F808D020461AF09EF901461D481AF008
:103B70008DF94FF4A0220023684614F0F1F90646AF
:103B800080B1194A19491A4840F22B1315F001FD6A
:103B90001848314615F0FDFC404080F311884FF085
:103BA000030002DF204611F0F9FF0C2358433E5C6E
:103BB00056B1204612F0AEF8092E0CBF6FF06E0021
:103BC0006FF0040007B0F0BD15B12C603046F9E786
:103BD000204612F09FF82846F4E76FF06800F1E7FE
:103BE000A81600203C010020910C0200C50C020028
:103BF000CE0C0200EF0C02002DE9F043B0F801708A
:103C0000834A6FEA075311886FEA13539BB29942B4
:103C100005464FF0000608BF168089B008BF012690
:103C200000F000FB2C781FFA87F8C4B13C2C4AD175
:103C300000F04EFE6FF04001103016F0D2FF002071
:103C4000FFF7C6FD054600283DD00473002101F0B2
:103C5000E3FB284609B0BDE8F04317F041BD2B79DE
:103C6000023B012B05F1040930D80722494606A87A
:103C700016F0EFFD9DF818300622023B05F1110108
:103C80000DF111008DF8183016F0E3FD01238DF8C9
:103C90001030EB78012B12D106A8FFF799FDEB78D5
:103CA000012B04460AD100F013FE6FF0400181465B
:103CB000103016F096FF484617F04FFCDCB91F2174
:103CC000404617F0D0F809B0BDE8F083EB78012B3F
:103CD00004BF504B93F867404946204617F0B7FAA7
:103CE0000722014606A816F0B4FD0722494604A89B
:103CF00016F0AFFDCDE72046072220F8887B06A905
:103D000016F0A7FD2A7EEB7D43EA0223A4F89E303D
:103D1000AA7E6B7E43EA0223A4F8A4302A7FEB7EBE
:103D200043EA0223A4F8A630EB78E3700022012BCB
:103D3000227317D1072204A904F18F0016F089FD20
:103D400000F0C6FD217A334DC1EBC10129440722A1
:103D500004F1960016F07DFDD5F8DC305D0601D546
:103D600000F072FF0721204601F056FB1EB1012131
:103D7000204601F051FB204617F0EEFC637B072B39
:103D800042D1BFF35B8F6368224EBFF35B8F13F4A6
:103D9000006F18D1E3781BB196F8D030180712D510
:103DA000022142F21600FFF769FE054658B10221D2
:103DB00008301AF0AAF8238803800022294642F22C
:103DC0001600FFF7B7FE96F8D130D90706D50021C7
:103DD000022300911A46204617F07EF896F8D0305C
:103DE0009A0611D5D6F854319B689B070CD50DF176
:103DF0000E0103A817F01FF830B9BDF80E20BDF86A
:103E00000C10204617F04AF8204617F069FC5AE7D4
:103E1000BC2800200000002029289ABF014B185C14
:103E2000092070479F0D02002DE9F041044600F182
:103E3000080630461AF0BEF8B4F80C80B8F1010F4D
:103E400005460CD81C4A1D491D4840F6475315F03D
:103E5000A0FB404080F311884FF0030002DF3046A2
:103E600002211AF08FF80746007816F0DAFDC20733
:103E700006460CD4104A1349114840F64B5315F02E
:103E800088FB404080F311884FF0030002DF0523D8
:103E90000D4A3878214616F0D6FDB30707D52069BC
:103EA000A4F80C8010FA85F5A560BDE8F0812046E5
:103EB000BDE8F04111F02EBF910C02000F0D020081
:103EC000CE0C0200280D0200E8F8010070B5037D59
:103ED000012B044636D0032B63D18389032B0CD8E6
:103EE000324A3349334840F2CF1315F052FB404079
:103EF00080F311884FF0030002DF042104F1080071
:103F00001AF040F8FF22438806886275A289C6F33A
:103F10000B009A42E08203D0204611F0FBFE0FE036
:103F200001F072FA05460028F6D001F025FB320BAD
:103F300060752146284617F06BFB284617F0D0FB2A
:103F4000002070BD8389012B0CD8184A18491948E4
:103F500040F62F1315F01DFB404080F311884FF001
:103F6000030002DF022104F108001AF00BF80546F5
:103F7000007816F056FD83070CD40C4A0E490D4804
:103F800040F6331315F005FB404080F311884FF0E5
:103F9000030002DF094A28780623214616F053FD64
:103FA000BAE711F0B7FE6FF01500CAE7910C0200F6
:103FB0000F0D0200CE0C0200410D0200B8F8010006
:103FC00010B5037D012B04460CD0094A09490A4863
:103FD00040F69D5315F0DDFA404080F311884FF014
:103FE000030002DF2046FFF71FFF002010BD00BFC7
:103FF000910C02006F0D0200CE0C0200084A03462D
:10400000D2F8540130B9D96839B1596929B1C2F827
:10401000543170476FF0770070476FF015007047AC
:104020000000002008B50448042116F065FDBDE835
:104030000840002000F082BECC00002010B5FCF744
:10404000CFF9034B1B6813B1BDE81040184710BDF2
:10405000C016002070B5274DD5F8543188B00646FB
:10406000002B41D06FF0020105F1CC0016F0B9FD34
:10407000012116F041FD10EA010438D11E4B1E60EB
:104080000A4605F590701AF024FC05F59E701AF0AA
:10409000C3FB00220023CDE906236FF00803CDE91E
:1040A0000243CDE90044154B154904944FF4407286
:1040B000144813F057FE144912481AF031FBFFF769
:1040C0004DFAD5F85431DB689847044648B926B90B
:1040D00008B0BDE87040FCF783B905F1BC0014F0EE
:1040E000A7F8204608B070BD6FF01204F9E76FF032
:1040F0007704F6E700000020C016002025390000F4
:1041000080320020A80C0020920D02000048704769
:10411000980D0200F8B50B4F06460025FB79ECB26E
:10412000A34202D86FF0010409E0C4EBC4010722E6
:104130003944304616F07CFB01350028EED120468C
:10414000F8BD00BF0000002038B51449062205461E
:1041500016F06EFB0446E0B1062142F20500FFF7BF
:104160008DFC0446B8B106222946083019F0D3FE6A
:104170002146002242F20500FFF7DCFC044640B96C
:1041800006220648294616F064FB054B012283F8F7
:104190006020204638BD6FF06804FAE76100002017
:1041A0000000002030B5044685B00D4699B10023CB
:1041B000072202A928460293CDF80B3016F038FBEF
:1041C00048B11048C4EBC4042946204416F0B3FF9C
:1041D000002005B030BD684616F015FC0028F8D167
:1041E0006846FFF797FF0028F5DA0648C4EBC404D9
:1041F00004446946204616F09EFF002DE8D0214673
:104200002846E3E70000002008B5054816F096FFB1
:10421000C30402D4024816F091FF012008BD00BF7C
:10422000CC0000200A4BBFF35B8F53E8002F22F431
:10423000804143E800100028F7D1BFF35B8F53049F
:1042400004D504490022022004F068BC704700BF76
:10425000CC000020A7B201002DE9F3414E4C94F8A8
:10426000182194F8193105460AB19A4209D201334E
:1042700084F819312B7A43F004032B7202B0BDE8A5
:10428000F08100210622084601F0A0FA04F1CC03D7
:104290000646A0B1BFF35B8F53E8002F42F4804283
:1042A00043E800210029F7D1BFF35B8F2B7A43F05D
:1042B00001032B7202B0BDE8F04117F011BA1846A5
:1042C00016F03CFF3146C0F38017344800F0FAFA8C
:1042D00017B1304617F046F994F81931B3B994F88C
:1042E000192194F818319A4223D10022114642F242
:1042F0002900FFF71FFC70B994F81931013384F8D5
:1043000019312B7A43F004032B7204E0002016F0DD
:104310006AFF0028E3D0012016F065FF17B10120E5
:1043200017F020F91E48002102B0BDE8F04100F06E
:10433000C9BA2A4605F1010812F82A0B414616F0BF
:1043400003FF06460028E6D194F81931013384F8BA
:1043500019312B7A43F004032B7294F89F305B07DA
:10436000D9D54146684616F0E6FE0123082142F2FF
:104370004E008DF80730FFF781FB04460028CAD0B5
:1043800008226946104419F0C6FD3246214642F221
:104390004E00FFF7CFFBBEE70000002017B2010080
:1043A000BDB101002DE9F843454D95F8182195F868
:1043B0001931044612B10132934208DD013B85F800
:1043C0001931237A23F004032372BDE8F883002116
:1043D0000622084601F0FAF905F1CC03064698B129
:1043E000BFF35B8F53E8002F42F4804243E8002183
:1043F0000029F7D1BFF35B8F237A43F002032372C6
:10440000BDE8F84317F06CB9184616F097FE314630
:10441000C0F380182B4800F055FAB8F1000F02D015
:10442000304617F09FF8002016F0DDFE074688B9E9
:1044300095F8193195F818219A421DD2013B85F85B
:104440001931237A204923F0040302462372022003
:1044500004F064FB95F8193113B1012016F0C3FE86
:10446000B8F1000F02D0012017F07CF8BDE8F84346
:104470001648002100F026BA072142F22800FFF773
:10448000FDFA04F1010906460028E3D007210830AF
:1044900019F03BFD494616F04EFE3A46314642F2CF
:1044A0002800FFF747FB0028D4D195F81931013BCC
:1044B00085F81931237A23F004032372CAE700BF79
:1044C0000000002017B20100A7B10100BDB101003A
:1044D00073B50C46054618B9ECB16FF0150018E03D
:1044E0000023072269460093CDF8033016F0A0F9A7
:1044F0000028F1D02B78012BEFD1AB7903F0C0036A
:10450000C02BEAD12846FFF705FE0028E4DB6FF058
:10451000770002B070BD124EF379012B1CD006F16A
:10452000CC0016F00BFEC3070BD4002DD5D007220C
:10453000694628460094CDF8034016F079F9002822
:10454000CBD0F4792946631C2046F371FFF72AFE8D
:10455000002808BF2046DCE76FF00B00D9E700BF5A
:104560000000002070B586B0064601AA002141F285
:104570000900FFF7DFFA044670B9019B02909D68BD
:10458000ADF80C000135062202A9284616F050F9B4
:1045900020B9019811F0BEFB002016E00C4B186802
:1045A00004909B88ADF81430062204A9284616F022
:1045B0003FF90028EDD006222946701C16F049F973
:1045C0000198347011F0A6FB012006B070BD00BF49
:1045D000DDF3010007B56846FFF7C4FF044BD8714F
:1045E00018B169460020FFF7DDFD03B05DF804FB5C
:1045F000000000202DE9F341154B93F8BA4014F068
:10460000010407460E4615D001AA00214FF60940C5
:10461000FFF790FA0546C8B9019B9B685C78B442E5
:1046200028BF34464FF016089E1CA54206DB0198B1
:1046300011F070FB204602B0BDE8F08108FB057068
:104640001622314616F005F90135EEE70024F1E7B0
:1046500000000020F0B5154EF47989B0F4B90121BD
:1046600002A8FFF7C7FFF071C0B1162702ABE5B291
:1046700007FB053106220DF1010016F0EAF80123CF
:10468000694628468DF80030FFF78CFD20B9F27995
:104690000134E3B29A42E9D809B0F0BD00210846DE
:1046A00009B0BDE8F040FFF713BF00BF00000020D5
:1046B0002DE9F04711F00104067880460D46914639
:1046C0001F462BD0DFF8B4802AB1880603D598F8AE
:1046D000D03059064FD5C6EBC6034FEAC60A18F8C4
:1046E0000330012B09D0AAEB060618F80630B9F101
:1046F000000F0ED13B70002408E0072010FB0630AD
:104700004044FFF721FD04460028ECD02046BDE8D8
:10471000F087AA0648BF43F00203EBE711F0040557
:1047200014D0DFF85880C6EBC603F50018F8033044
:10473000012B06D1072010FB06304044FFF704FD93
:104740000446AD1B18F805303B70DFE70C4816F047
:10475000F5FC4306C0F3801602D5284616F002FF8A
:10476000404616F08EFD044601203870002ECDD054
:1047700016F0F8FECAE76FF08504C7E700000020D6
:10478000CC00002010B50A4CE3790BB1002010BD1D
:10479000FFF720FF0028FAD1E379002BF6D1FFF7CD
:1047A00059FF0028F3D1601CBDE81040FFF7CCBCD6
:1047B00000000020436837B50446580502D50020A4
:1047C00003B030BD22690AB1D907F8D51A4D207857
:1047D000EB798342F3D9C0EBC0000023072269467E
:1047E00028440093CDF8033016F022F80028E6D0D4
:1047F0006068C20706D495F86830082B02D8A36811
:104800009F2BDCD910F0300F02D02369002BD6D0BB
:10481000C30601D4236943B9D4E902239A42CED80E
:104820001F2ACCD9B3F5804FC9D800F46030B0F559
:10483000603018BF0120C3E700000020F0B5064635
:104840001E4B16F8092B83F8672085B00023054618
:1048500007220F46304669460093CDF8033015F025
:10486000E7FF2A780446A8B9154B18689988029082
:104870009B79ADF80C10104602A98DF80E3000F0AF
:104880006BFF0546B8B1042100F0C6FD3D6020462F
:1048900005B0F0BD3146104616F0DDFF044638B9CC
:1048A0002878314600F058FF054620B10521EBE796
:1048B0006FF01504EBE76FF00B04E8E70000002051
:1048C000E3F3010003460148184700BF1800002029
:1048D00000487047180000202DE9F04F0E698FB096
:1048E0009A460023B6EB030905468C48059218BF8B
:1048F0004FF00109079316F0F5FC47070C4640F10D
:1049000002810846FFF756FF28B96FF0150B58468D
:104910000FB0BDE8F08F2046FFF776FC80460028F8
:10492000F3D005F11007384616F0DCFCC0F3801B0D
:10493000400600F1EB800F2259460AA815F094FFBB
:10494000A368ADF828306068E368ADF82A3016F047
:10495000BAFC2A7823788DF835009A428DF836B063
:1049600004D06E486FF4005116F0C2FC6C4A2378F4
:104970002B7082F8673061680DF12D034A46284696
:10498000FFF796FE83460028C1D105F10900002EED
:1049900049D02169072215F05CFF204616F0A6FDDC
:1049A0006368D907814647D5002E42D013F0100F17
:1049B00014BF0423012321698DF82C3007220DF147
:1049C0002E0015F046FF4FF000080F2142F20600BE
:1049D000FFF754F88346002800F09B800F220AA9B5
:1049E000083019F098FA0022594642F20600FFF703
:1049F000A1F8002840F0908076B36368DB0739D4D3
:104A00000121284616F082FD83460798BBF1000F6E
:104A100073D000283FF47BAF002100F0FDFC079825
:104A200016F05EFE73E708960722CDF8236008A90A
:104A3000B1E78DF82C60C8E79A0503D4189B0BB931
:104A4000022803D102238DF82C30BEE70323DDF8C2
:104A500060808DF82C30B8E7199B0093CDE901896F
:104A6000189B05995246284616F0C9FC8346002833
:104A7000C3D04CE707A92846FFF7E0FE834600288D
:104A8000BED010F10C0F7FF442AF002E7FF43FAF89
:104A9000636898073FF53BAF626882F00202C2F399
:104AA000400B0BF001020D21384616F091FC09F184
:104AB000FF335A425A410721384616F089FCA9F1C2
:104AC00002014A424A413846082116F081FC6268D8
:104AD000092102F00102384616F07AFC42460A210A
:104AE000384616F075FC62680C21C2F38002384625
:104AF00016F06EFC4FF0000B09E708B116F0F0FD60
:104B0000002ECED1C8E76FF00A0B00E76FF0770BED
:104B1000FDE66FF0680BFAE68346F8E6CC0000206D
:104B20000000002073B51546069A0C46CDE9003208
:104B30002B460A4601461148FFF7CEFE214606469F
:104B4000002340F201109D4202D1304602B070BDF8
:104B50000A88824204D14A6812B11278D20702D47C
:104B600001330831EFE70649064819F070FF4FF4AA
:104B700070220023034813F0F7FBE6E7180000203B
:104B800061B50100300000201FB5294816F0E5FC92
:104B90006FF40051274816F0ABFB264816F0A2FB35
:104BA000410603D40024204604B010BD214816F06D
:104BB00099FB820521D500231F48009307226946EF
:104BC000CDF8033015F034FE1C4B60BB1C4A9188B5
:104BD00010689279ADF80C108DF80E200290042226
:104BE00002A9187E00F0F2FD044630B100210173E5
:104BF00000F012FC204616F073FD0D48002116F05F
:104C000085FC04460028CED10E4816F06BFB430607
:104C1000C8D5204616F0A6FC204616F020FB012041
:104C200016F0A0FCBFE7052203F12101D9E700BF80
:104C30001800002028000020210000200000002093
:104C4000E3F30100CC00002037B51E481D4C16F0E0
:104C500049FB10F4005F32D0204616F043FB4206B9
:104C6000C0F380152BD4204616F03CFB830526D5D7
:104C700001A9A4F11000FFF7E1FD00BB0121A4F19F
:104C8000100016F043FC50B12946019800F0C4FB17
:104C90006FF40051204616F02BFBC0F3403501980D
:104CA00016F01EFD5DB1BFF35B8F54E8003F43F487
:104CB000005344E80032002AF7D1BFF35B8F03B002
:104CC00030BD00BF2800002030B5022187B0044667
:104CD00042F20C00FEF7D2FE054618B3022108305E
:104CE00019F013F9012C1BD1BFF35B8F0F4B1B681D
:104CF000BFF35B8FC3F340234370631E04705C42B9
:104D00005C410A4A009403A928460623FEF7A4FE44
:104D10000022294642F20C00FEF70CFF07B030BD1E
:104D20000023E9E76FF06800F8E700BFCC0000203F
:104D3000014B00221A607047CC1600200A4BBFF3CB
:104D40005B8F1A68BFF35B8FC2F3C010120608D4E2
:104D5000BFF35B8F1B68BFF35B8F5B0601D5FFF76B
:104D6000B3BF0020704700BFCC0000202DE9F04FFA
:104D700000F108088BB00446404619F00BF9DFF843
:104D800044B1064616B90BB0BDE8F08FA389082BD5
:104D9000F9D90921404619F0F5F890F808907F23D9
:104DA0008DF81E3000EB090301225B7A8DF81D306F
:104DB000FF238DF81C300023ADF82230ADF82420FD
:104DC00002788DF81F20042A9CBF3F4B9B5CADF8F6
:104DD00020303E4BBFF35B8F1B68BFF35B8F1A061F
:104DE000054600F101011FFA89F90BD5BDF8203005
:104DF0005B0707D5297A40460131013E19F0BAF820
:104E0000F6B2BFE76B789A1E012A48D8072202A89B
:104E100015F01FFD9DF80830023B8DF8083002ABFD
:104E20000693DBF80030A3B1404619F0C3F8A78918
:104E30009DF81F209DF91D10DBF800C0A4F80C9010
:104E40008246434602A8E0472069A78110FA8AF00B
:104E5000A0601F4B1A68002ACCD052F8087907B11D
:104E6000083F1368019293B1404619F0A3F8019AE4
:104E7000A3891268A4F80C908246414606A80093C4
:104E800090472069009BA38110FA8AF0A060002F50
:104E9000B0D0BB6803B1083B3A461F46E1E7FF2BA1
:104EA00009D1002304930722CDF8133004A902A8E6
:104EB00015F0CFFCB3E7002016F0C9F90722014630
:104EC000F5E700BFCC160020C90D0200CC00002081
:104ED000C416002008B50449402215F0A9FCB0FA18
:104EE00080F0400908BD00BFCE0D020070B5314B07
:104EF00093F89A3003F00603062B52D1002853D0C2
:104F00002D4E326832B1131F984250D05B680BB1FE
:104F1000043BF9E742607268031D336002B97360B5
:104F2000264CBFF35B8F54E8002F42F0200344E887
:104F300000310029F7D1BFF35B8F12F0200202D0BD
:104F40000025284670BDBFF35B8F54E8003F23F077
:104F5000100344E800310029F7D1BFF35B8F1146FD
:104F600042F22500FEF7E6FD05460028E8D0BFF333
:104F70005B8F54E8003F23F0200344E80032002A0E
:104F8000F7D1BFF35B8F34683CB154F8043C043C68
:104F90000BB1002098476468F6E70023C6E90033A8
:104FA000CFE76FF08505CCE76FF01505C9E76FF027
:104FB0007705C6E700000020D4160020CC000020B2
:104FC000054BBFF35B8F1B680448BFF35B8F13F087
:104FD000100F08BF00207047CC000020512900208E
:104FE000F8B51F4D2B688B42064632D013B16FF0D7
:104FF0000F00F8BD1B4BBFF35B8F1A68BFF35B8FCD
:10500000C2F340179206F2D4BFF35B8F1B68BFF365
:105010005B8FDB0620D5296042F226004021FEF797
:105020002DFD044690B14021083018F06EFF40225B
:10503000314615F00EFC3A46214642F22600FEF7B4
:1050400079FD0028D5D000232B60D2E76FF06800EF
:10505000F9E76FF07700CCE76FF07C00C9E700BF9D
:10506000D0160020CC000020F8B51B4C8668BFF39A
:105070005B8F54E8003F23F0200344E80032002A0D
:10508000F7D1BFF35B8F337883B914484022711C8A
:1050900015F0DFFBBFF35B8F54E8003F43F01003D4
:1050A00044E80032002AF7D1BFF35B8F0C4D2C6827
:1050B0006CB10A4F043C23682BB13278002A0CBF34
:1050C00038460020984764680CB1043CF3E700239D
:1050D000C5E90033F8BD00BFCC00002051290020F5
:1050E000D416002005490B6833B18268002008609F
:1050F000117801B9501C1847704700BFD016002026
:105100000B4B70B51D68044625B90A4D0A4EB542D1
:1051100007D370BD2B6813B1217B20469847AD693A
:10512000F2E72B6813B1217B204698471C35EEE748
:10513000E816002034F3010050F301002DE9F0419E
:10514000DFF85480044600274FF02002EFF311836C
:1051500082F31288BFF36F8F216A29B983F3118814
:10516000BFF36F8FBDE8F081606A0A6822628142F6
:1051700008BF626283F31188BFF36F8FD1E90156D4
:10518000CF60C1E90177404619F052FB0022314659
:105190002046A847D8E700BFD80A002070B5D1E95B
:1051A00001560022C1E901220446CA60054819F0EF
:1051B0003FFB314620462B466FF06D02BDE8704044
:1051C000184700BFD80A00202DE9F8434D6904466E
:1051D0000E4690461F464FF0FF3335484FF0FF32E2
:1051E00012F0BEFE637B072B3BD14FF02003EFF3A1
:1051F000118283F31288BFF36F8FA369002D43D010
:1052000000212960002B3CD1C4E9055582F31188A7
:10521000BFF36F8F042106F1080018F097FE238872
:1052200008F0FD0843EA0838B389A0F80080043B81
:10523000438002233375304615F039FFB0B34FF089
:105240002003EFF3118883F31288BFF36F8F3DB310
:10525000294604F1140016F087F988F31188BFF38A
:105260006F8F134812F056FE1DB129462046FFF7F6
:1052700095FF1FB1304610F04DFD00273846BDE8C0
:10528000F8831D60A561C1E733B103F10C09DB6848
:105290000133C9F80030B9E7E36904F11C09F7E705
:1052A000D9F80030013BC9F80030D6E70127E5E71F
:1052B00000010020004870470001002038B5044676
:1052C000002301258B4202D10024204638BD04F181
:1052D000B802BFF35B8F52E8000F002804D142E808
:1052E000005CBCF1000FF6D1BFF35B8F04F1C0008E
:1052F00002D001330446E5E7002CE6D0B8220021B5
:10530000204615F0B1FA04F15800044919F09FFB4A
:10531000034904F1280019F05CFBD6E77D58000032
:10532000BBB50100F8B51F46437B072B04460D466D
:1053300016461BD142B313F0C7FA164B83421648E8
:1053400007BF002200234FF0FF324FF0FF3312F06F
:10535000ADFD0146D0B1637B072B4FF0000208D0B2
:10536000C0E90122C2600C4819F062FA6FF07F00B8
:1053700009E0C0E90167C260686104F138002946AC
:1053800018F084FD0020F8BD4A61F6E76FF0680070
:10539000F9E700BFB0150020D80A002070B5174B00
:1053A000174C0022012105469A6019F02CFEBFF32C
:1053B0005B8FD4F8B830BFF35B8F05F114060BB9DF
:1053C000012070BD637B53B96FF04001201D16F0C2
:1053D000E5F8430603D5204616F0FBF8F0E7637BBB
:1053E000072BEDD1074B30460022042119F00BFEAC
:1053F000012385F820300220E3E700BFB40200203B
:10540000280D0020600D002002460121014816F001
:1054100081B900BF280D002070B5457B8D42044640
:1054200000F0A580417325B98378082B01D016F0D0
:105430003CF9637B012B16D14D4D00264FF0200324
:10544000EFF3118283F31288BFF36F8FE369002BB0
:105450006DD0013BE36182F31188BFF36F8F284663
:1054600012F058FDEAE7072B09D0002B7FD1A37873
:10547000042B1ED12046BDE8704016F031B9A37848
:10548000042B74D004F1380019F0C6F93948002112
:1054900013F040FC0023C4E91433E378012B66D1F8
:1054A00004F158004FF42032BDE87040002312F0A0
:1054B00027BF013D052D5AD801A353F825F000BFA1
:1054C000D9540000215500007554000075540000A7
:1054D00021550000215500002046FFF72FFEA3783C
:1054E000012B0AD104F15805284619F0BCFA10F036
:1054F0000C0F02D0284619F0B8FABFF35B8F0434C2
:1055000054E8003F43F0400344E80032002AF7D15A
:10551000BFF35B8F1748BDE87040002113F0FABB62
:10552000237B002BA6D02046FFF7EAFDA2E76169A6
:1055300029B1A0690B686361814208BFA36182F34E
:105540001188BFF36F8F91B14FF02002EFF31183F9
:1055500082F31288BFF36F8FCA68E261CE6083F373
:105560001188BFF36F8F2046FFF718FE77E770BDF5
:1055700000010020B4020020034BC01A034B80112D
:105580005843C0B2704700BF280D0020ABAAAAAA9A
:1055900038B50D460649002808BF084618F053FCE8
:1055A000044618B1291D083018F06CFC204638BD9F
:1055B000F00A0020F8B50446BFF35B8F6368BFF3C1
:1055C0005B8FDB0500F1040011D5B4F89E30B4F810
:1055D000A0209A420BD8B4F8A2209A4207D3D4E96B
:1055E00029239A4203D16FF4807115F0D7FF104B35
:1055F0001D6825B90F4D104FBD420CD3F8BDEE68A4
:105600003EB1B4F8A630B4F8A420B4F89E102046F9
:10561000B047AD69EDE7EE683EB1B4F8A630B4F836
:10562000A420B4F89E102046B0471C35E4E700BF24
:10563000E816002034F3010050F301002DE9F04199
:10564000074608460C4615F0AAFC054618B9002581
:105650002846BDE8F081134B1E6846B9124EDFF8AC
:105660004C804645F4D2B36883B91C36F9E7B36879
:105670000BB9B669F1E72146384698470028E6D0CD
:10568000204615F08CFC0028F3D1E0E7214638468F
:1056900098470028DBD0204615F081FC0028E4D193
:1056A000D5E700BFE816002034F3010050F30100F5
:1056B0002DE9F041C378044673B900F19606104B0A
:1056C0001D6804F1880755B90E4D0F4F04F1880885
:1056D000BD420CD3BDE8F08100F18F06EFE72B69E6
:1056E0001BB13A46314620469847AD69EBE72B6936
:1056F0001BB142463146204698471C35E8E700BFBB
:10570000E816002034F3010050F30100F8B5437AA5
:1057100083720446164616F047FB0C4B1D6825B9EC
:105720000B4D0C4FBD4208D3F8BD6B691BB1617ABC
:10573000324620469847AD69F1E76B691BB1617A43
:105740003246204698471C35ECE700BFE81600209B
:1057500034F3010050F3010070B506460D460A48C7
:105760000121FFF7ABFD044660B10672072229460E
:10577000883015F06EF801236372A372A370034B97
:10578000C4F8A030204670BD280D00201800280065
:1057900070B505460C480E4615F087FF044628B143
:1057A0008378012B04D015F09BFF0024204670BDA8
:1057B0002946324616F02FF805460028F6D1204635
:1057C00015F08EFF2C46F1E7280D0020F8B50546B0
:1057D0000E480E46174615F068FF0446A0B18378C0
:1057E000012B03D015F07CFF00240DE036B13246CA
:1057F000294616F010F808B92046F3E7637BBB4250
:10580000FAD1237AAB42F7D12046F8BD280D00200B
:1058100038B5044608460D4615F0C1FB48B3164B93
:1058200093F8D030990707D4E37883B1294620460E
:10583000BDE8384016F00BBB94F8AC309A07F3D5AE
:10584000BFF35B8F6368BFF35B8F9B05ECD4294686
:10585000204616F00AF858B92B88A4F8A0306B88B7
:10586000A4F8A230AB88A4F8A830EB88A4F8AA303A
:1058700038BD6FF01500FBE700000020F7B510F809
:105880004B3C0446A0F15805FBB9284616F047F9F1
:10589000284B1E684EB9284E284FBE420DD32846CD
:1058A00003B0BDE8F04015F01BBF73681BB114F8DE
:1058B0004C1C28469847B669ECE773681BB114F88E
:1058C0004C1C284698471C36E7E710F8563C012B3D
:1058D00028D1A0F154066FF48071304615F05EFEB9
:1058E000C30521D5B4F84830ADF80030B4F84A30DB
:1058F000ADF80230B4F85030ADF80430B4F852309E
:10590000ADF8063069462846FFF782FFBFF35B8F8C
:1059100056E8003F43F0800346E80032002AF7D102
:10592000BFF35B8F03B0F0BD054A106851686B464A
:1059300003C3E7E7E816002034F3010050F3010049
:10594000CEF3010001460148FFF722BE740B002090
:105950002DE9F04106464FF0FF334FF0FF320020B3
:105960000C46FFF7EFFF737B072B05464FF0000651
:1059700005D010F0CFF935462846BDE8F0814661E4
:1059800000F108070C4E3846B6F8FC8018F016FBFC
:1059900080450CD2B6F8FC6054F8081F32463846F1
:1059A00018F0B9FA3146204618F0E4FAE4E7384630
:1059B00018F004FB86B2EFE70000002070B5437BCF
:1059C00004465BB96FF04001043015F0E7FD430673
:1059D00004D52046BDE8704015F0FBBD0022002331
:1059E00004F1380018F034FA054660B91F4A20491E
:1059F000204840F2FE2313F0CCFD404080F3118894
:105A00004FF0030002DF1C4EAA89B6F8FC309A4220
:105A100007D80023022229462046FFF7D5FB30B1E4
:105A200070BD29462046FFF793FF014620B928465E
:105A3000BDE8704010F06EB9012300222046FFF748
:105A4000C3FB0028F3D0AA89B6F8FC309A4202D8EA
:105A500000230322DFE729462046FFF779FF0146AE
:105A60000028E4D001231A46E8E700BF0E0E02002A
:105A7000EB0C0200CE0C0200000000200C4B08B919
:105A8000186070471A6862B902693AB902685AB96F
:105A900042684AB982683AB942692AB91860002056
:105AA00070476FF0770070476FF01500704700BFC8
:105AB000DC16002010B50B490B4818F0B9FE0B4955
:105AC000094818F0B5FE0A49074818F0B1FE01F080
:105AD000C7F902F0E5FF044608B900F0F5F92046E1
